{
  "fileName": "ClashingImplementation.sol",
  "contractName": "ClashingImplementation",
  "source": "pragma solidity ^0.5.0;\n\n\n/**\n * @dev Implementation contract with an admin() function made to clash with\n * @dev AdminUpgradeabilityProxy's to test correct functioning of the\n * @dev Transparent Proxy feature.\n */\ncontract ClashingImplementation {\n\n  function admin() external pure returns (address) {\n    return 0x0000000000000000000000000000000011111142;\n  }\n\n  function delegatedFunction() external pure returns (bool) {\n    return true;\n  }\n}\n",
  "sourcePath": "contracts/mocks/ClashingImplementation.sol",
  "abi": [
    {
      "constant": true,
      "inputs": [],
      "name": "delegatedFunction",
      "outputs": [
        {
          "name": "",
          "type": "bool"
        }
      ],
      "payable": false,
      "stateMutability": "pure",
      "type": "function"
    },
    {
      "constant": true,
      "inputs": [],
      "name": "admin",
      "outputs": [
        {
          "name": "",
          "type": "address"
        }
      ],
      "payable": false,
      "stateMutability": "pure",
      "type": "function"
    }
  ],
  "bytecode": "0x608060405234801561001057600080fd5b5060e08061001f6000396000f3fe6080604052348015600f57600080fd5b506004361060325760003560e01c8063abf8e0e7146037578063f851a440146057575b600080fd5b603d609f565b604051808215151515815260200191505060405180910390f35b605d60a8565b604051808273ffffffffffffffffffffffffffffffffffffffff1673ffffffffffffffffffffffffffffffffffffffff16815260200191505060405180910390f35b60006001905090565b6000631111114290509056fea165627a7a7230582021e2d519bfa0c47f7082196eae66f733b7c6dab361dc4ff1cd658ee4df3eba590029",
  "compiler": {
    "name": "solc",
    "version": "0.5.3+commit.10d17f24.Emscripten.clang",
    "optimizer": {
      "enabled": false,
      "runs": 200
    },
    "evmVersion": "constantinople"
  }
}