{
  "fileName": "DeprecatedApp.sol",
  "contractName": "DeprecatedApp",
  "source": "pragma solidity ^0.5.0;\n\nimport \"../application/ImplementationProvider.sol\";\nimport \"../application/Package.sol\";\nimport { DeprecatedAdminUpgradeabilityProxy as AdminUpgradeabilityProxy } from \"../mocks/DeprecatedAdminUpgradeabilityProxy.sol\";\nimport \"../ownership/Ownable.sol\";\n\n/**\n * @title App\n * @dev Contract for upgradeable applications.\n * It handles the creation and upgrading of proxies.\n */\ncontract DeprecatedApp is OpenZeppelinUpgradesOwnable {\n  /**\n   * @dev Emitted when a new proxy is created.\n   * @param proxy Address of the created proxy.\n   */\n  event ProxyCreated(address proxy);\n\n  /**\n   * @dev Emitted when a package dependency is changed in the application.\n   * @param providerName Name of the package that changed.\n   * @param package Address of the package associated to the name.\n   * @param version Version of the package in use.\n   */\n  event PackageChanged(string providerName, address package, uint64[3] version);\n\n  /**\n   * @dev Tracks a package in a particular version, used for retrieving implementations\n   */\n  struct ProviderInfo {\n    Package package;\n    uint64[3] version;\n  }\n\n  /**\n   * @dev Maps from dependency name to a tuple of package and version\n   */\n  mapping(string => ProviderInfo) internal providers;\n\n  /**\n   * @dev Constructor function.\n   */\n  constructor() public { }\n\n  /**\n   * @dev Returns the provider for a given package name, or zero if not set.\n   * @param packageName Name of the package to be retrieved.\n   * @return The provider.\n   */\n  function getProvider(string memory packageName) public view returns (ImplementationProvider provider) {\n    ProviderInfo storage info = providers[packageName];\n    if (address(info.package) == address(0)) return ImplementationProvider(0);\n    return ImplementationProvider(info.package.getContract(info.version));\n  }\n\n  /**\n   * @dev Returns information on a package given its name.\n   * @param packageName Name of the package to be queried.\n   * @return A tuple with the package address and pinned version given a package name, or zero if not set\n   */\n  function getPackage(string memory packageName) public view returns (Package, uint64[3] memory) {\n    ProviderInfo storage info = providers[packageName];\n    return (info.package, info.version);\n  }\n\n  /**\n   * @dev Sets a package in a specific version as a dependency for this application.\n   * Requires the version to be present in the package.\n   * @param packageName Name of the package to set or overwrite.\n   * @param package Address of the package to register.\n   * @param version Version of the package to use in this application.\n   */\n  function setPackage(string memory packageName, Package package, uint64[3] memory version) public onlyOwner {\n    require(package.hasVersion(version), \"The requested version must be registered in the given package\");\n    providers[packageName] = ProviderInfo(package, version);\n    emit PackageChanged(packageName, address(package), version);\n  }\n\n  /**\n   * @dev Unsets a package given its name.\n   * Reverts if the package is not set in the application.\n   * @param packageName Name of the package to remove.\n   */\n  function unsetPackage(string memory packageName) public onlyOwner {\n    require(address(providers[packageName].package) != address(0), \"Package to unset not found\");\n    delete providers[packageName];\n    emit PackageChanged(packageName, address(0), [uint64(0), uint64(0), uint64(0)]);\n  }\n\n  /**\n   * @dev Returns the implementation address for a given contract name, provided by the `ImplementationProvider`.\n   * @param packageName Name of the package where the contract is contained.\n   * @param contractName Name of the contract.\n   * @return Address where the contract is implemented.\n   */\n  function getImplementation(string memory packageName, string memory contractName) public view returns (address) {\n    ImplementationProvider provider = getProvider(packageName);\n    if (address(provider) == address(0)) return address(0);\n    return provider.getImplementation(contractName);\n  }\n\n  /**\n   * @dev Returns the current implementation of a proxy.\n   * This is needed because only the proxy admin can query it.\n   * @return The address of the current implementation of the proxy.\n   */\n  function getProxyImplementation(AdminUpgradeabilityProxy proxy) public returns (address) {\n    return proxy.implementation();\n  }\n\n  /**\n   * @dev Returns the admin of a proxy. Only the admin can query it.\n   * @return The address of the current admin of the proxy.\n   */\n  function getProxyAdmin(AdminUpgradeabilityProxy proxy) public view returns (address) {\n    return proxy.admin();\n  }\n\n  /**\n   * @dev Changes the admin of a proxy.\n   * @param proxy Proxy to change admin.\n   * @param newAdmin Address to transfer proxy administration to.\n   */\n  function changeProxyAdmin(AdminUpgradeabilityProxy proxy, address newAdmin) public onlyOwner {\n    proxy.changeAdmin(newAdmin);\n  }\n\n  /**\n   * @dev Creates a new proxy for the given contract and forwards a function call to it.\n   * This is useful to initialize the proxied contract.\n   * @param packageName Name of the package where the contract is contained.\n   * @param contractName Name of the contract.\n   * @param data Data to send as msg.data to the corresponding implementation to initialize the proxied contract.\n   * It should include the signature and the parameters of the function to be called, as described in\n   * https://solidity.readthedocs.io/en/v0.4.24/abi-spec.html#function-selector-and-argument-encoding.\n   * This parameter is optional, if no data is given the initialization call to proxied contract will be skipped.\n   * @return Address of the new proxy.\n   */\n   function create(string memory packageName, string memory contractName, bytes memory data) payable public returns (AdminUpgradeabilityProxy) {\n    address implementation = getImplementation(packageName, contractName);\n     AdminUpgradeabilityProxy proxy = (new AdminUpgradeabilityProxy).value(msg.value)(implementation, data);\n     emit ProxyCreated(address(proxy));\n     return proxy;\n  }\n\n  /**\n   * @dev Upgrades a proxy to the newest implementation of a contract.\n   * @param proxy Proxy to be upgraded.\n   * @param packageName Name of the package where the contract is contained.\n   * @param contractName Name of the contract.\n   */\n  function upgrade(AdminUpgradeabilityProxy proxy, string memory packageName, string memory contractName) public onlyOwner {\n    address implementation = getImplementation(packageName, contractName);\n    proxy.upgradeTo(implementation);\n  }\n\n  /**\n   * @dev Upgrades a proxy to the newest implementation of a contract and forwards a function call to it.\n   * This is useful to initialize the proxied contract.\n   * @param proxy Proxy to be upgraded.\n   * @param packageName Name of the package where the contract is contained.\n   * @param contractName Name of the contract.\n   * @param data Data to send as msg.data in the low level call.\n   * It should include the signature and the parameters of the function to be called, as described in\n   * https://solidity.readthedocs.io/en/v0.4.24/abi-spec.html#function-selector-and-argument-encoding.\n   */\n  function upgradeAndCall(AdminUpgradeabilityProxy proxy, string memory packageName, string memory contractName, bytes memory data) payable public onlyOwner {\n    address implementation = getImplementation(packageName, contractName);\n    proxy.upgradeToAndCall.value(msg.value)(implementation, data);\n  }\n}\n",
  "sourcePath": "contracts/mocks/DeprecatedApp.sol",
  "abi": [
    {
      "constant": false,
      "inputs": [
        {
          "name": "proxy",
          "type": "address"
        }
      ],
      "name": "getProxyImplementation",
      "outputs": [
        {
          "name": "",
          "type": "address"
        }
      ],
      "payable": false,
      "stateMutability": "nonpayable",
      "type": "function"
    },
    {
      "constant": true,
      "inputs": [
        {
          "name": "packageName",
          "type": "string"
        },
        {
          "name": "contractName",
          "type": "string"
        }
      ],
      "name": "getImplementation",
      "outputs": [
        {
          "name": "",
          "type": "address"
        }
      ],
      "payable": false,
      "stateMutability": "view",
      "type": "function"
    },
    {
      "constant": false,
      "inputs": [
        {
          "name": "packageName",
          "type": "string"
        },
        {
          "name": "contractName",
          "type": "string"
        },
        {
          "name": "data",
          "type": "bytes"
        }
      ],
      "name": "create",
      "outputs": [
        {
          "name": "",
          "type": "address"
        }
      ],
      "payable": true,
      "stateMutability": "payable",
      "type": "function"
    },
    {
      "constant": true,
      "inputs": [
        {
          "name": "packageName",
          "type": "string"
        }
      ],
      "name": "getProvider",
      "outputs": [
        {
          "name": "provider",
          "type": "address"
        }
      ],
      "payable": false,
      "stateMutability": "view",
      "type": "function"
    },
    {
      "constant": false,
      "inputs": [],
      "name": "renounceOwnership",
      "outputs": [],
      "payable": false,
      "stateMutability": "nonpayable",
      "type": "function"
    },
    {
      "constant": false,
      "inputs": [
        {
          "name": "packageName",
          "type": "string"
        },
        {
          "name": "package",
          "type": "address"
        },
        {
          "name": "version",
          "type": "uint64[3]"
        }
      ],
      "name": "setPackage",
      "outputs": [],
      "payable": false,
      "stateMutability": "nonpayable",
      "type": "function"
    },
    {
      "constant": false,
      "inputs": [
        {
          "name": "proxy",
          "type": "address"
        },
        {
          "name": "newAdmin",
          "type": "address"
        }
      ],
      "name": "changeProxyAdmin",
      "outputs": [],
      "payable": false,
      "stateMutability": "nonpayable",
      "type": "function"
    },
    {
      "constant": false,
      "inputs": [
        {
          "name": "proxy",
          "type": "address"
        },
        {
          "name": "packageName",
          "type": "string"
        },
        {
          "name": "contractName",
          "type": "string"
        }
      ],
      "name": "upgrade",
      "outputs": [],
      "payable": false,
      "stateMutability": "nonpayable",
      "type": "function"
    },
    {
      "constant": true,
      "inputs": [
        {
          "name": "packageName",
          "type": "string"
        }
      ],
      "name": "getPackage",
      "outputs": [
        {
          "name": "",
          "type": "address"
        },
        {
          "name": "",
          "type": "uint64[3]"
        }
      ],
      "payable": false,
      "stateMutability": "view",
      "type": "function"
    },
    {
      "constant": true,
      "inputs": [],
      "name": "owner",
      "outputs": [
        {
          "name": "",
          "type": "address"
        }
      ],
      "payable": false,
      "stateMutability": "view",
      "type": "function"
    },
    {
      "constant": true,
      "inputs": [],
      "name": "isOwner",
      "outputs": [
        {
          "name": "",
          "type": "bool"
        }
      ],
      "payable": false,
      "stateMutability": "view",
      "type": "function"
    },
    {
      "constant": false,
      "inputs": [
        {
          "name": "packageName",
          "type": "string"
        }
      ],
      "name": "unsetPackage",
      "outputs": [],
      "payable": false,
      "stateMutability": "nonpayable",
      "type": "function"
    },
    {
      "constant": false,
      "inputs": [
        {
          "name": "proxy",
          "type": "address"
        },
        {
          "name": "packageName",
          "type": "string"
        },
        {
          "name": "contractName",
          "type": "string"
        },
        {
          "name": "data",
          "type": "bytes"
        }
      ],
      "name": "upgradeAndCall",
      "outputs": [],
      "payable": true,
      "stateMutability": "payable",
      "type": "function"
    },
    {
      "constant": false,
      "inputs": [
        {
          "name": "newOwner",
          "type": "address"
        }
      ],
      "name": "transferOwnership",
      "outputs": [],
      "payable": false,
      "stateMutability": "nonpayable",
      "type": "function"
    },
    {
      "constant": true,
      "inputs": [
        {
          "name": "proxy",
          "type": "address"
        }
      ],
      "name": "getProxyAdmin",
      "outputs": [
        {
          "name": "",
          "type": "address"
        }
      ],
      "payable": false,
      "stateMutability": "view",
      "type": "function"
    },
    {
      "inputs": [],
      "payable": false,
      "stateMutability": "nonpayable",
      "type": "constructor"
    },
    {
      "anonymous": false,
      "inputs": [
        {
          "indexed": false,
          "name": "proxy",
          "type": "address"
        }
      ],
      "name": "ProxyCreated",
      "type": "event"
    },
    {
      "anonymous": false,
      "inputs": [
        {
          "indexed": false,
          "name": "providerName",
          "type": "string"
        },
        {
          "indexed": false,
          "name": "package",
          "type": "address"
        },
        {
          "indexed": false,
          "name": "version",
          "type": "uint64[3]"
        }
      ],
      "name": "PackageChanged",
      "type": "event"
    },
    {
      "anonymous": false,
      "inputs": [
        {
          "indexed": true,
          "name": "previousOwner",
          "type": "address"
        },
        {
          "indexed": true,
          "name": "newOwner",
          "type": "address"
        }
      ],
      "name": "OwnershipTransferred",
      "type": "event"
    }
  ],
  "bytecode": "0x608060405234801561001057600080fd5b50336000806101000a81548173ffffffffffffffffffffffffffffffffffffffff021916908373ffffffffffffffffffffffffffffffffffffffff1602179055506000809054906101000a900473ffffffffffffffffffffffffffffffffffffffff1673ffffffffffffffffffffffffffffffffffffffff16600073ffffffffffffffffffffffffffffffffffffffff167f8be0079c531659141344cd1fd0a4f28419497f9722a3daafe3b4186f6b6457e060405160405180910390a3612f5e806100dc6000396000f3fe608060405260043610620000fe5760003560e01c806382f751821162000097578063ad358d991162000061578063ad358d991462000b99578063e7e4fc841462000c68578063f2fde38b1462000e7d578063f3b7dead1462000ed257620000fe565b806382f75182146200084457806387c6048314620009cd5780638da5cb5b1462000b0d5780638f32d59b1462000b6757620000fe565b806350cadc8511620000d957806350cadc851462000576578063715018a6146200068557806371eb64cc146200069f5780637eff275e14620007cf57620000fe565b8063204e1c7a146200010357806327a0d66914620001985780632f237e821462000341575b600080fd5b3480156200011057600080fd5b5062000156600480360360208110156200012957600080fd5b81019080803573ffffffffffffffffffffffffffffffffffffffff16906020019092919050505062000f67565b604051808273ffffffffffffffffffffffffffffffffffffffff1673ffffffffffffffffffffffffffffffffffffffff16815260200191505060405180910390f35b348015620001a557600080fd5b50620002ff60048036036040811015620001be57600080fd5b8101908080359060200190640100000000811115620001dc57600080fd5b820183602082011115620001ef57600080fd5b803590602001918460018302840111640100000000831117156200021257600080fd5b91908080601f016020809104026020016040519081016040528093929190818152602001838380828437600081840152601f19601f820116905080830192505050505050509192919290803590602001906401000000008111156200027657600080fd5b8201836020820111156200028957600080fd5b80359060200191846001830284011164010000000083111715620002ac57600080fd5b91908080601f016020809104026020016040519081016040528093929190818152602001838380828437600081840152601f19601f82011690508083019250505050505050919291929050505062000ff6565b604051808273ffffffffffffffffffffffffffffffffffffffff1673ffffffffffffffffffffffffffffffffffffffff16815260200191505060405180910390f35b62000534600480360360608110156200035957600080fd5b81019080803590602001906401000000008111156200037757600080fd5b8201836020820111156200038a57600080fd5b80359060200191846001830284011164010000000083111715620003ad57600080fd5b91908080601f016020809104026020016040519081016040528093929190818152602001838380828437600081840152601f19601f820116905080830192505050505050509192919290803590602001906401000000008111156200041157600080fd5b8201836020820111156200042457600080fd5b803590602001918460018302840111640100000000831117156200044757600080fd5b91908080601f016020809104026020016040519081016040528093929190818152602001838380828437600081840152601f19601f82011690508083019250505050505050919291929080359060200190640100000000811115620004ab57600080fd5b820183602082011115620004be57600080fd5b80359060200191846001830284011164010000000083111715620004e157600080fd5b91908080601f016020809104026020016040519081016040528093929190818152602001838380828437600081840152601f19601f82011690508083019250505050505050919291929050505062001148565b604051808273ffffffffffffffffffffffffffffffffffffffff1673ffffffffffffffffffffffffffffffffffffffff16815260200191505060405180910390f35b3480156200058357600080fd5b5062000643600480360360208110156200059c57600080fd5b8101908080359060200190640100000000811115620005ba57600080fd5b820183602082011115620005cd57600080fd5b80359060200191846001830284011164010000000083111715620005f057600080fd5b91908080601f016020809104026020016040519081016040528093929190818152602001838380828437600081840152601f19601f820116905080830192505050505050509192919290505050620012a0565b604051808273ffffffffffffffffffffffffffffffffffffffff1673ffffffffffffffffffffffffffffffffffffffff16815260200191505060405180910390f35b3480156200069257600080fd5b506200069d6200148c565b005b348015620006ac57600080fd5b50620007cd600480360360a0811015620006c557600080fd5b8101908080359060200190640100000000811115620006e357600080fd5b820183602082011115620006f657600080fd5b803590602001918460018302840111640100000000831117156200071957600080fd5b91908080601f016020809104026020016040519081016040528093929190818152602001838380828437600081840152601f19601f820116905080830192505050505050509192919290803573ffffffffffffffffffffffffffffffffffffffff16906020019092919080606001906003806020026040519081016040528092919082600360200280828437600081840152601f19601f820116905080830192505050505050919291929050505062001561565b005b348015620007dc57600080fd5b506200084260048036036040811015620007f557600080fd5b81019080803573ffffffffffffffffffffffffffffffffffffffff169060200190929190803573ffffffffffffffffffffffffffffffffffffffff1690602001909291905050506200188f565b005b3480156200085157600080fd5b50620009cb600480360360608110156200086a57600080fd5b81019080803573ffffffffffffffffffffffffffffffffffffffff16906020019092919080359060200190640100000000811115620008a857600080fd5b820183602082011115620008bb57600080fd5b80359060200191846001830284011164010000000083111715620008de57600080fd5b91908080601f016020809104026020016040519081016040528093929190818152602001838380828437600081840152601f19601f820116905080830192505050505050509192919290803590602001906401000000008111156200094257600080fd5b8201836020820111156200095557600080fd5b803590602001918460018302840111640100000000831117156200097857600080fd5b91908080601f016020809104026020016040519081016040528093929190818152602001838380828437600081840152601f19601f82011690508083019250505050505050919291929050505062001942565b005b348015620009da57600080fd5b5062000a9a60048036036020811015620009f357600080fd5b810190808035906020019064010000000081111562000a1157600080fd5b82018360208201111562000a2457600080fd5b8035906020019184600183028401116401000000008311171562000a4757600080fd5b91908080601f016020809104026020016040519081016040528093929190818152602001838380828437600081840152601f19601f82011690508083019250505050505050919291929050505062001a07565b604051808373ffffffffffffffffffffffffffffffffffffffff1673ffffffffffffffffffffffffffffffffffffffff16815260200182600360200280838360005b8381101562000af957808201518184015260208101905062000adc565b505050509050019250505060405180910390f35b34801562000b1a57600080fd5b5062000b2562001b2c565b604051808273ffffffffffffffffffffffffffffffffffffffff1673ffffffffffffffffffffffffffffffffffffffff16815260200191505060405180910390f35b34801562000b7457600080fd5b5062000b7f62001b55565b604051808215151515815260200191505060405180910390f35b34801562000ba657600080fd5b5062000c666004803603602081101562000bbf57600080fd5b810190808035906020019064010000000081111562000bdd57600080fd5b82018360208201111562000bf057600080fd5b8035906020019184600183028401116401000000008311171562000c1357600080fd5b91908080601f016020809104026020016040519081016040528093929190818152602001838380828437600081840152601f19601f82011690508083019250505050505050919291929050505062001bac565b005b62000e7b6004803603608081101562000c8057600080fd5b81019080803573ffffffffffffffffffffffffffffffffffffffff1690602001909291908035906020019064010000000081111562000cbe57600080fd5b82018360208201111562000cd157600080fd5b8035906020019184600183028401116401000000008311171562000cf457600080fd5b91908080601f016020809104026020016040519081016040528093929190818152602001838380828437600081840152601f19601f8201169050808301925050505050505091929192908035906020019064010000000081111562000d5857600080fd5b82018360208201111562000d6b57600080fd5b8035906020019184600183028401116401000000008311171562000d8e57600080fd5b91908080601f016020809104026020016040519081016040528093929190818152602001838380828437600081840152601f19601f8201169050808301925050505050505091929192908035906020019064010000000081111562000df257600080fd5b82018360208201111562000e0557600080fd5b8035906020019184600183028401116401000000008311171562000e2857600080fd5b91908080601f016020809104026020016040519081016040528093929190818152602001838380828437600081840152601f19601f82011690508083019250505050505050919291929050505062001f04565b005b34801562000e8a57600080fd5b5062000ed06004803603602081101562000ea357600080fd5b81019080803573ffffffffffffffffffffffffffffffffffffffff1690602001909291905050506200203b565b005b34801562000edf57600080fd5b5062000f256004803603602081101562000ef857600080fd5b81019080803573ffffffffffffffffffffffffffffffffffffffff1690602001909291905050506200205f565b604051808273ffffffffffffffffffffffffffffffffffffffff1673ffffffffffffffffffffffffffffffffffffffff16815260200191505060405180910390f35b60008173ffffffffffffffffffffffffffffffffffffffff16635c60da1b6040518163ffffffff1660e01b8152600401602060405180830381600087803b15801562000fb257600080fd5b505af115801562000fc7573d6000803e3d6000fd5b505050506040513d602081101562000fde57600080fd5b81019080805190602001909291905050509050919050565b6000806200100484620012a0565b9050600073ffffffffffffffffffffffffffffffffffffffff168173ffffffffffffffffffffffffffffffffffffffff1614156200104757600091505062001142565b8073ffffffffffffffffffffffffffffffffffffffff16636b683896846040518263ffffffff1660e01b81526004018080602001828103825283818151815260200191508051906020019080838360005b83811015620010b557808201518184015260208101905062001098565b50505050905090810190601f168015620010e35780820380516001836020036101000a031916815260200191505b509250505060206040518083038186803b1580156200110157600080fd5b505afa15801562001116573d6000803e3d6000fd5b505050506040513d60208110156200112d57600080fd5b81019080805190602001909291905050509150505b92915050565b60008062001157858562000ff6565b905060003482856040516200116c90620021e7565b808373ffffffffffffffffffffffffffffffffffffffff1673ffffffffffffffffffffffffffffffffffffffff16815260200180602001828103825283818151815260200191508051906020019080838360005b83811015620011dd578082015181840152602081019050620011c0565b50505050905090810190601f1680156200120b5780820380516001836020036101000a031916815260200191505b5093505050506040518091039082f0801580156200122d573d6000803e3d6000fd5b50905090507efffc2da0b561cae30d9826d37709e9421c4725faebc226cbbb7ef5fc5e734981604051808273ffffffffffffffffffffffffffffffffffffffff1673ffffffffffffffffffffffffffffffffffffffff16815260200191505060405180910390a180925050509392505050565b6000806001836040518082805190602001908083835b602083101515620012dd5780518252602082019150602081019050602083039250620012b6565b6001836020036101000a03801982511681845116808217855250505050505090500191505090815260200160405180910390209050600073ffffffffffffffffffffffffffffffffffffffff168160000160009054906101000a900473ffffffffffffffffffffffffffffffffffffffff1673ffffffffffffffffffffffffffffffffffffffff1614156200137757600091505062001487565b8060000160009054906101000a900473ffffffffffffffffffffffffffffffffffffffff1673ffffffffffffffffffffffffffffffffffffffff16631df40eaa826001016040518263ffffffff1660e01b815260040180826003801562001428576020028201916000905b82829054906101000a900467ffffffffffffffff1667ffffffffffffffff1681526020019060080190602082600701049283019260010382029150808411620013e25790505b505091505060206040518083038186803b1580156200144657600080fd5b505afa1580156200145b573d6000803e3d6000fd5b505050506040513d60208110156200147257600080fd5b81019080805190602001909291905050509150505b919050565b6200149662001b55565b1515620014a257600080fd5b600073ffffffffffffffffffffffffffffffffffffffff166000809054906101000a900473ffffffffffffffffffffffffffffffffffffffff1673ffffffffffffffffffffffffffffffffffffffff167f8be0079c531659141344cd1fd0a4f28419497f9722a3daafe3b4186f6b6457e060405160405180910390a360008060006101000a81548173ffffffffffffffffffffffffffffffffffffffff021916908373ffffffffffffffffffffffffffffffffffffffff160217905550565b6200156b62001b55565b15156200157757600080fd5b8173ffffffffffffffffffffffffffffffffffffffff166335ce4016826040518263ffffffff1660e01b81526004018082600360200280838360005b83811015620015d0578082015181840152602081019050620015b3565b5050505090500191505060206040518083038186803b158015620015f357600080fd5b505afa15801562001608573d6000803e3d6000fd5b505050506040513d60208110156200161f57600080fd5b8101908080519060200190929190505050151562001689576040517f08c379a000000000000000000000000000000000000000000000000000000000815260040180806020018281038252603d81526020018062002ef6603d913960400191505060405180910390fd5b60408051908101604052808373ffffffffffffffffffffffffffffffffffffffff168152602001828152506001846040518082805190602001908083835b602083101515620016ee5780518252602082019150602081019050602083039250620016c7565b6001836020036101000a038019825116818451168082178552505050505050905001915050908152602001604051809103902060008201518160000160006101000a81548173ffffffffffffffffffffffffffffffffffffffff021916908373ffffffffffffffffffffffffffffffffffffffff16021790555060208201518160010190600362001781929190620021f5565b509050507f4ca1964bc3cd347906bc558f77fdd636486951cf12238150178be72a4fbb6fab83838360405180806020018473ffffffffffffffffffffffffffffffffffffffff1673ffffffffffffffffffffffffffffffffffffffff16815260200183600360200280838360005b838110156200180c578082015181840152602081019050620017ef565b50505050905001828103825285818151815260200191508051906020019080838360005b838110156200184d57808201518184015260208101905062001830565b50505050905090810190601f1680156200187b5780820380516001836020036101000a031916815260200191505b5094505050505060405180910390a1505050565b6200189962001b55565b1515620018a557600080fd5b8173ffffffffffffffffffffffffffffffffffffffff16638f283970826040518263ffffffff1660e01b8152600401808273ffffffffffffffffffffffffffffffffffffffff1673ffffffffffffffffffffffffffffffffffffffff168152602001915050600060405180830381600087803b1580156200192557600080fd5b505af11580156200193a573d6000803e3d6000fd5b505050505050565b6200194c62001b55565b15156200195857600080fd5b600062001966838362000ff6565b90508373ffffffffffffffffffffffffffffffffffffffff16633659cfe6826040518263ffffffff1660e01b8152600401808273ffffffffffffffffffffffffffffffffffffffff1673ffffffffffffffffffffffffffffffffffffffff168152602001915050600060405180830381600087803b158015620019e857600080fd5b505af1158015620019fd573d6000803e3d6000fd5b5050505050505050565b600062001a13620022aa565b60006001846040518082805190602001908083835b60208310151562001a4f578051825260208201915060208101905060208303925062001a28565b6001836020036101000a038019825116818451168082178552505050505050905001915050908152602001604051809103902090508060000160009054906101000a900473ffffffffffffffffffffffffffffffffffffffff16816001018060038060200260405190810160405280929190826003801562001b1b576020028201916000905b82829054906101000a900467ffffffffffffffff1667ffffffffffffffff168152602001906008019060208260070104928301926001038202915080841162001ad55790505b505050505090509250925050915091565b60008060009054906101000a900473ffffffffffffffffffffffffffffffffffffffff16905090565b60008060009054906101000a900473ffffffffffffffffffffffffffffffffffffffff1673ffffffffffffffffffffffffffffffffffffffff163373ffffffffffffffffffffffffffffffffffffffff1614905090565b62001bb662001b55565b151562001bc257600080fd5b600073ffffffffffffffffffffffffffffffffffffffff166001826040518082805190602001908083835b60208310151562001c14578051825260208201915060208101905060208303925062001bed565b6001836020036101000a038019825116818451168082178552505050505050905001915050908152602001604051809103902060000160009054906101000a900473ffffffffffffffffffffffffffffffffffffffff1673ffffffffffffffffffffffffffffffffffffffff161415151562001cf8576040517f08c379a000000000000000000000000000000000000000000000000000000000815260040180806020018281038252601a8152602001807f5061636b61676520746f20756e736574206e6f7420666f756e6400000000000081525060200191505060405180910390fd5b6001816040518082805190602001908083835b60208310151562001d32578051825260208201915060208101905060208303925062001d0b565b6001836020036101000a0380198251168184511680821785525050505050509050019150509081526020016040518091039020600080820160006101000a81549073ffffffffffffffffffffffffffffffffffffffff021916905560018201600062001d9f9190620022cd565b50507f4ca1964bc3cd347906bc558f77fdd636486951cf12238150178be72a4fbb6fab816000606060405190810160405280600067ffffffffffffffff1667ffffffffffffffff168152602001600067ffffffffffffffff1667ffffffffffffffff168152602001600067ffffffffffffffff1667ffffffffffffffff1681525060405180806020018473ffffffffffffffffffffffffffffffffffffffff1673ffffffffffffffffffffffffffffffffffffffff16815260200183600360200280838360005b8381101562001e8357808201518184015260208101905062001e66565b50505050905001828103825285818151815260200191508051906020019080838360005b8381101562001ec457808201518184015260208101905062001ea7565b50505050905090810190601f16801562001ef25780820380516001836020036101000a031916815260200191505b5094505050505060405180910390a150565b62001f0e62001b55565b151562001f1a57600080fd5b600062001f28848462000ff6565b90508473ffffffffffffffffffffffffffffffffffffffff16634f1ef2863483856040518463ffffffff1660e01b8152600401808373ffffffffffffffffffffffffffffffffffffffff1673ffffffffffffffffffffffffffffffffffffffff16815260200180602001828103825283818151815260200191508051906020019080838360005b8381101562001fcc57808201518184015260208101905062001faf565b50505050905090810190601f16801562001ffa5780820380516001836020036101000a031916815260200191505b5093505050506000604051808303818588803b1580156200201a57600080fd5b505af11580156200202f573d6000803e3d6000fd5b50505050505050505050565b6200204562001b55565b15156200205157600080fd5b6200205c81620020ec565b50565b60008173ffffffffffffffffffffffffffffffffffffffff1663f851a4406040518163ffffffff1660e01b815260040160206040518083038186803b158015620020a857600080fd5b505afa158015620020bd573d6000803e3d6000fd5b505050506040513d6020811015620020d457600080fd5b81019080805190602001909291905050509050919050565b600073ffffffffffffffffffffffffffffffffffffffff168173ffffffffffffffffffffffffffffffffffffffff16141515156200212957600080fd5b8073ffffffffffffffffffffffffffffffffffffffff166000809054906101000a900473ffffffffffffffffffffffffffffffffffffffff1673ffffffffffffffffffffffffffffffffffffffff167f8be0079c531659141344cd1fd0a4f28419497f9722a3daafe3b4186f6b6457e060405160405180910390a3806000806101000a81548173ffffffffffffffffffffffffffffffffffffffff021916908373ffffffffffffffffffffffffffffffffffffffff16021790555050565b610be7806200230f83390190565b8260038001600490048101928215620022975791602002820160005b838211156200225f57835183826101000a81548167ffffffffffffffff021916908367ffffffffffffffff160217905550926020019260080160208160070104928301926001030262002211565b8015620022955782816101000a81549067ffffffffffffffff02191690556008016020816007010492830192600103026200225f565b505b509050620022a69190620022d4565b5090565b606060405190810160405280600390602082028038833980820191505090505090565b5060009055565b6200230b91905b808211156200230757600081816101000a81549067ffffffffffffffff021916905550600101620022db565b5090565b9056fe6080604052604051610be7380380610be78339810180604052604081101561002657600080fd5b8101908080519060200190929190805164010000000081111561004857600080fd5b8281019050602081018481111561005e57600080fd5b815185600182028301116401000000008211171561007b57600080fd5b50509291905050508181600160405180807f656970313936372e70726f78792e696d706c656d656e746174696f6e00000000815250601c019050604051809103902060001c0360001b7f360894a13ba1a3210667c828492db98dca3e2076cc3735a920a3ca505d382bbc60001b1415156100f157fe5b6101008261024b60201b60201c565b6000815111156101d05760008273ffffffffffffffffffffffffffffffffffffffff16826040518082805190602001908083835b6020831015156101595780518252602082019150602081019050602083039250610134565b6001836020036101000a038019825116818451168082178552505050505050905001915050600060405180830381855af49150503d80600081146101b9576040519150601f19603f3d011682016040523d82523d6000602084013e6101be565b606091505b505090508015156101ce57600080fd5b505b505060405180807f6f72672e7a657070656c696e6f732e70726f78792e61646d696e000000000000815250601a01905060405180910390207f10d6a54a4754c8869d6886b5f5d7fbfa5b4522237ea5c60d11bc4e7a1ff9390b60001b14151561023557fe5b610244336102e460201b60201c565b5050610326565b61025e8161031360201b6107951760201c565b15156102b5576040517f08c379a000000000000000000000000000000000000000000000000000000000815260040180806020018281038252603b815260200180610bac603b913960400191505060405180910390fd5b60007f360894a13ba1a3210667c828492db98dca3e2076cc3735a920a3ca505d382bbc60001b90508181555050565b60007f10d6a54a4754c8869d6886b5f5d7fbfa5b4522237ea5c60d11bc4e7a1ff9390b60001b90508181555050565b600080823b905060008111915050919050565b610877806103356000396000f3fe60806040526004361061004a5760003560e01c80633659cfe6146100545780634f1ef286146100a55780635c60da1b1461013e5780638f28397014610195578063f851a440146101e6575b61005261023d565b005b34801561006057600080fd5b506100a36004803603602081101561007757600080fd5b81019080803573ffffffffffffffffffffffffffffffffffffffff169060200190929190505050610257565b005b61013c600480360360408110156100bb57600080fd5b81019080803573ffffffffffffffffffffffffffffffffffffffff169060200190929190803590602001906401000000008111156100f857600080fd5b82018360208201111561010a57600080fd5b8035906020019184600183028401116401000000008311171561012c57600080fd5b90919293919293905050506102ac565b005b34801561014a57600080fd5b50610153610384565b604051808273ffffffffffffffffffffffffffffffffffffffff1673ffffffffffffffffffffffffffffffffffffffff16815260200191505060405180910390f35b3480156101a157600080fd5b506101e4600480360360208110156101b857600080fd5b81019080803573ffffffffffffffffffffffffffffffffffffffff1690602001909291905050506103dc565b005b3480156101f257600080fd5b506101fb610557565b604051808273ffffffffffffffffffffffffffffffffffffffff1673ffffffffffffffffffffffffffffffffffffffff16815260200191505060405180910390f35b610245610566565b6102556102506105fe565b61062f565b565b61025f610655565b73ffffffffffffffffffffffffffffffffffffffff163373ffffffffffffffffffffffffffffffffffffffff1614156102a05761029b81610686565b6102a9565b6102a861023d565b5b50565b6102b4610655565b73ffffffffffffffffffffffffffffffffffffffff163373ffffffffffffffffffffffffffffffffffffffff161415610376576102f083610686565b60008373ffffffffffffffffffffffffffffffffffffffff168383604051808383808284378083019250505092505050600060405180830381855af49150503d806000811461035b576040519150601f19603f3d011682016040523d82523d6000602084013e610360565b606091505b5050905080151561037057600080fd5b5061037f565b61037e61023d565b5b505050565b600061038e610655565b73ffffffffffffffffffffffffffffffffffffffff163373ffffffffffffffffffffffffffffffffffffffff1614156103d0576103c96105fe565b90506103d9565b6103d861023d565b5b90565b6103e4610655565b73ffffffffffffffffffffffffffffffffffffffff163373ffffffffffffffffffffffffffffffffffffffff16141561054b57600073ffffffffffffffffffffffffffffffffffffffff168173ffffffffffffffffffffffffffffffffffffffff161415151561049f576040517f08c379a00000000000000000000000000000000000000000000000000000000081526004018080602001828103825260368152602001806107db6036913960400191505060405180910390fd5b7f7e644d79422f17c01e4894b5f4f588d331ebfa28653d42ae832dc59e38c9798f6104c8610655565b82604051808373ffffffffffffffffffffffffffffffffffffffff1673ffffffffffffffffffffffffffffffffffffffff1681526020018273ffffffffffffffffffffffffffffffffffffffff1673ffffffffffffffffffffffffffffffffffffffff1681526020019250505060405180910390a1610546816106d5565b610554565b61055361023d565b5b50565b6000610561610655565b905090565b61056e610655565b73ffffffffffffffffffffffffffffffffffffffff163373ffffffffffffffffffffffffffffffffffffffff16141515156105f4576040517f08c379a00000000000000000000000000000000000000000000000000000000081526004018080602001828103825260328152602001806107a96032913960400191505060405180910390fd5b6105fc610704565b565b6000807f360894a13ba1a3210667c828492db98dca3e2076cc3735a920a3ca505d382bbc60001b9050805491505090565b3660008037600080366000845af43d6000803e8060008114610650573d6000f35b3d6000fd5b6000807f10d6a54a4754c8869d6886b5f5d7fbfa5b4522237ea5c60d11bc4e7a1ff9390b60001b9050805491505090565b61068f81610706565b8073ffffffffffffffffffffffffffffffffffffffff167fbc7cd75a20ee27fd9adebab32041f755214dbc6bffa90cc0225b39da2e5c2d3b60405160405180910390a250565b60007f10d6a54a4754c8869d6886b5f5d7fbfa5b4522237ea5c60d11bc4e7a1ff9390b60001b90508181555050565b565b61070f81610795565b1515610766576040517f08c379a000000000000000000000000000000000000000000000000000000000815260040180806020018281038252603b815260200180610811603b913960400191505060405180910390fd5b60007f360894a13ba1a3210667c828492db98dca3e2076cc3735a920a3ca505d382bbc60001b90508181555050565b600080823b90506000811191505091905056fe43616e6e6f742063616c6c2066616c6c6261636b2066756e6374696f6e2066726f6d207468652070726f78792061646d696e43616e6e6f74206368616e6765207468652061646d696e206f6620612070726f787920746f20746865207a65726f206164647265737343616e6e6f742073657420612070726f787920696d706c656d656e746174696f6e20746f2061206e6f6e2d636f6e74726163742061646472657373a165627a7a7230582043d54e8c86eca6076ab1c3551d02c14dc6e9af4c622a6852d142b22c096f2a1e002943616e6e6f742073657420612070726f787920696d706c656d656e746174696f6e20746f2061206e6f6e2d636f6e74726163742061646472657373546865207265717565737465642076657273696f6e206d757374206265207265676973746572656420696e2074686520676976656e207061636b616765a165627a7a72305820be825877238c15023bcdca404d933572d774a591fb762d74d4bbe4f3f21f48be0029",
  "compiler": {
    "name": "solc",
    "version": "0.5.3+commit.10d17f24.Emscripten.clang",
    "optimizer": {
      "enabled": false,
      "runs": 200
    },
    "evmVersion": "constantinople"
  }
}