{
  "fileName": "DummyImplementation.sol",
  "contractName": "DummyImplementationV2",
  "source": "pragma solidity ^0.5.0;\n\ncontract Impl {\n  function version() public pure returns (string memory); \n}\n\ncontract DummyImplementation {\n  uint256 public value;\n  string public text;\n  uint256[] public values;\n\n  function initializeNonPayable() public {\n    value = 10;\n  }\n\n  function initializePayable() payable public {\n    value = 100;\n  }\n\n  function initializeNonPayable(uint256 _value) public {\n    value = _value;\n  }\n\n  function initializePayable(uint256 _value) payable public {\n    value = _value;\n  }\n\n  function initialize(uint256 _value, string memory _text, uint256[] memory _values) public {\n    value = _value;\n    text = _text;\n    values = _values;\n  }\n\n  function get() public pure returns (bool) {\n    return true;\n  }\n\n  function version() public pure returns (string memory) {\n    return \"V1\";\n  }\n\n  function reverts() public pure {\n    require(false);\n  }\n}\n\ncontract DummyImplementationV2 is DummyImplementation {\n  function migrate(uint256 newVal) payable public {\n    value = newVal;\n  }\n\n  function version() public pure returns (string memory) {\n    return \"V2\";\n  }\n}\n",
  "sourcePath": "contracts/mocks/DummyImplementation.sol",
  "abi": [
    {
      "constant": false,
      "inputs": [
        {
          "name": "_value",
          "type": "uint256"
        }
      ],
      "name": "initializePayable",
      "outputs": [],
      "payable": true,
      "stateMutability": "payable",
      "type": "function"
    },
    {
      "constant": true,
      "inputs": [],
      "name": "text",
      "outputs": [
        {
          "name": "",
          "type": "string"
        }
      ],
      "payable": false,
      "stateMutability": "view",
      "type": "function"
    },
    {
      "constant": false,
      "inputs": [],
      "name": "initializeNonPayable",
      "outputs": [],
      "payable": false,
      "stateMutability": "nonpayable",
      "type": "function"
    },
    {
      "constant": true,
      "inputs": [],
      "name": "reverts",
      "outputs": [],
      "payable": false,
      "stateMutability": "pure",
      "type": "function"
    },
    {
      "constant": true,
      "inputs": [],
      "name": "value",
      "outputs": [
        {
          "name": "",
          "type": "uint256"
        }
      ],
      "payable": false,
      "stateMutability": "view",
      "type": "function"
    },
    {
      "constant": false,
      "inputs": [
        {
          "name": "newVal",
          "type": "uint256"
        }
      ],
      "name": "migrate",
      "outputs": [],
      "payable": true,
      "stateMutability": "payable",
      "type": "function"
    },
    {
      "constant": true,
      "inputs": [],
      "name": "version",
      "outputs": [
        {
          "name": "",
          "type": "string"
        }
      ],
      "payable": false,
      "stateMutability": "pure",
      "type": "function"
    },
    {
      "constant": false,
      "inputs": [
        {
          "name": "_value",
          "type": "uint256"
        }
      ],
      "name": "initializeNonPayable",
      "outputs": [],
      "payable": false,
      "stateMutability": "nonpayable",
      "type": "function"
    },
    {
      "constant": true,
      "inputs": [
        {
          "name": "",
          "type": "uint256"
        }
      ],
      "name": "values",
      "outputs": [
        {
          "name": "",
          "type": "uint256"
        }
      ],
      "payable": false,
      "stateMutability": "view",
      "type": "function"
    },
    {
      "constant": true,
      "inputs": [],
      "name": "get",
      "outputs": [
        {
          "name": "",
          "type": "bool"
        }
      ],
      "payable": false,
      "stateMutability": "pure",
      "type": "function"
    },
    {
      "constant": false,
      "inputs": [],
      "name": "initializePayable",
      "outputs": [],
      "payable": true,
      "stateMutability": "payable",
      "type": "function"
    },
    {
      "constant": false,
      "inputs": [
        {
          "name": "_value",
          "type": "uint256"
        },
        {
          "name": "_text",
          "type": "string"
        },
        {
          "name": "_values",
          "type": "uint256[]"
        }
      ],
      "name": "initialize",
      "outputs": [],
      "payable": false,
      "stateMutability": "nonpayable",
      "type": "function"
    }
  ],
  "bytecode": "0x608060405234801561001057600080fd5b50610750806100206000396000f3fe6080604052600436106100a75760003560e01c806354fd4d501161006457806354fd4d50146101f15780635ba8d2ad146102815780635e383d21146102bc5780636d4ce63c1461030b5780639fba1f9a1461033a578063d31f8b6b14610344576100a7565b806316eaa247146100ac5780631f1bd692146100da578063227367d51461016a5780633bccbbc9146101815780633fa4f24514610198578063454b0608146101c3575b600080fd5b6100d8600480360360208110156100c257600080fd5b81019080803590602001909291905050506104aa565b005b3480156100e657600080fd5b506100ef6104b4565b6040518080602001828103825283818151815260200191508051906020019080838360005b8381101561012f578082015181840152602081019050610114565b50505050905090810190601f16801561015c5780820380516001836020036101000a031916815260200191505b509250505060405180910390f35b34801561017657600080fd5b5061017f610552565b005b34801561018d57600080fd5b5061019661055c565b005b3480156101a457600080fd5b506101ad61056b565b6040518082815260200191505060405180910390f35b6101ef600480360360208110156101d957600080fd5b8101908080359060200190929190505050610571565b005b3480156101fd57600080fd5b5061020661057b565b6040518080602001828103825283818151815260200191508051906020019080838360005b8381101561024657808201518184015260208101905061022b565b50505050905090810190601f1680156102735780820380516001836020036101000a031916815260200191505b509250505060405180910390f35b34801561028d57600080fd5b506102ba600480360360208110156102a457600080fd5b81019080803590602001909291905050506105b8565b005b3480156102c857600080fd5b506102f5600480360360208110156102df57600080fd5b81019080803590602001909291905050506105c2565b6040518082815260200191505060405180910390f35b34801561031757600080fd5b506103206105e5565b604051808215151515815260200191505060405180910390f35b6103426105ee565b005b34801561035057600080fd5b506104a86004803603606081101561036757600080fd5b81019080803590602001909291908035906020019064010000000081111561038e57600080fd5b8201836020820111156103a057600080fd5b803590602001918460018302840111640100000000831117156103c257600080fd5b91908080601f016020809104026020016040519081016040528093929190818152602001838380828437600081840152601f19601f8201169050808301925050505050505091929192908035906020019064010000000081111561042557600080fd5b82018360208201111561043757600080fd5b8035906020019184602083028401116401000000008311171561045957600080fd5b919080806020026020016040519081016040528093929190818152602001838360200280828437600081840152601f19601f8201169050808301925050505050505091929192905050506105f8565b005b8060008190555050565b60018054600181600116156101000203166002900480601f01602080910402602001604051908101604052809291908181526020018280546001816001161561010002031660029004801561054a5780601f1061051f5761010080835404028352916020019161054a565b820191906000526020600020905b81548152906001019060200180831161052d57829003601f168201915b505050505081565b600a600081905550565b6000151561056957600080fd5b565b60005481565b8060008190555050565b60606040805190810160405280600281526020017f5632000000000000000000000000000000000000000000000000000000000000815250905090565b8060008190555050565b6002818154811015156105d157fe5b906000526020600020016000915090505481565b60006001905090565b6064600081905550565b826000819055508160019080519060200190610615929190610632565b50806002908051906020019061062c9291906106b2565b50505050565b828054600181600116156101000203166002900490600052602060002090601f016020900481019282601f1061067357805160ff19168380011785556106a1565b828001600101855582156106a1579182015b828111156106a0578251825591602001919060010190610685565b5b5090506106ae91906106ff565b5090565b8280548282559060005260206000209081019282156106ee579160200282015b828111156106ed5782518255916020019190600101906106d2565b5b5090506106fb91906106ff565b5090565b61072191905b8082111561071d576000816000905550600101610705565b5090565b9056fea165627a7a7230582054df33e8ec86c77b3345ebf0f15c2c56f7c3d3215ffa81ea616f2f68d733250c0029",
  "compiler": {
    "name": "solc",
    "version": "0.5.3+commit.10d17f24.Emscripten.clang",
    "optimizer": {
      "enabled": false,
      "runs": 200
    },
    "evmVersion": "constantinople"
  }
}