{
  "fileName": "DummyImplementation.sol",
  "contractName": "DummyImplementation",
  "source": "pragma solidity ^0.5.0;\n\ncontract Impl {\n  function version() public pure returns (string memory); \n}\n\ncontract DummyImplementation {\n  uint256 public value;\n  string public text;\n  uint256[] public values;\n\n  function initializeNonPayable() public {\n    value = 10;\n  }\n\n  function initializePayable() payable public {\n    value = 100;\n  }\n\n  function initializeNonPayable(uint256 _value) public {\n    value = _value;\n  }\n\n  function initializePayable(uint256 _value) payable public {\n    value = _value;\n  }\n\n  function initialize(uint256 _value, string memory _text, uint256[] memory _values) public {\n    value = _value;\n    text = _text;\n    values = _values;\n  }\n\n  function get() public pure returns (bool) {\n    return true;\n  }\n\n  function version() public pure returns (string memory) {\n    return \"V1\";\n  }\n\n  function reverts() public pure {\n    require(false);\n  }\n}\n\ncontract DummyImplementationV2 is DummyImplementation {\n  function migrate(uint256 newVal) payable public {\n    value = newVal;\n  }\n\n  function version() public pure returns (string memory) {\n    return \"V2\";\n  }\n}\n",
  "sourcePath": "contracts/mocks/DummyImplementation.sol",
  "abi": [
    {
      "constant": false,
      "inputs": [
        {
          "name": "_value",
          "type": "uint256"
        }
      ],
      "name": "initializePayable",
      "outputs": [],
      "payable": true,
      "stateMutability": "payable",
      "type": "function"
    },
    {
      "constant": true,
      "inputs": [],
      "name": "text",
      "outputs": [
        {
          "name": "",
          "type": "string"
        }
      ],
      "payable": false,
      "stateMutability": "view",
      "type": "function"
    },
    {
      "constant": false,
      "inputs": [],
      "name": "initializeNonPayable",
      "outputs": [],
      "payable": false,
      "stateMutability": "nonpayable",
      "type": "function"
    },
    {
      "constant": true,
      "inputs": [],
      "name": "reverts",
      "outputs": [],
      "payable": false,
      "stateMutability": "pure",
      "type": "function"
    },
    {
      "constant": true,
      "inputs": [],
      "name": "value",
      "outputs": [
        {
          "name": "",
          "type": "uint256"
        }
      ],
      "payable": false,
      "stateMutability": "view",
      "type": "function"
    },
    {
      "constant": true,
      "inputs": [],
      "name": "version",
      "outputs": [
        {
          "name": "",
          "type": "string"
        }
      ],
      "payable": false,
      "stateMutability": "pure",
      "type": "function"
    },
    {
      "constant": false,
      "inputs": [
        {
          "name": "_value",
          "type": "uint256"
        }
      ],
      "name": "initializeNonPayable",
      "outputs": [],
      "payable": false,
      "stateMutability": "nonpayable",
      "type": "function"
    },
    {
      "constant": true,
      "inputs": [
        {
          "name": "",
          "type": "uint256"
        }
      ],
      "name": "values",
      "outputs": [
        {
          "name": "",
          "type": "uint256"
        }
      ],
      "payable": false,
      "stateMutability": "view",
      "type": "function"
    },
    {
      "constant": true,
      "inputs": [],
      "name": "get",
      "outputs": [
        {
          "name": "",
          "type": "bool"
        }
      ],
      "payable": false,
      "stateMutability": "pure",
      "type": "function"
    },
    {
      "constant": false,
      "inputs": [],
      "name": "initializePayable",
      "outputs": [],
      "payable": true,
      "stateMutability": "payable",
      "type": "function"
    },
    {
      "constant": false,
      "inputs": [
        {
          "name": "_value",
          "type": "uint256"
        },
        {
          "name": "_text",
          "type": "string"
        },
        {
          "name": "_values",
          "type": "uint256[]"
        }
      ],
      "name": "initialize",
      "outputs": [],
      "payable": false,
      "stateMutability": "nonpayable",
      "type": "function"
    }
  ],
  "bytecode": "0x608060405234801561001057600080fd5b5061070d806100206000396000f3fe60806040526004361061009c5760003560e01c806354fd4d501161006457806354fd4d50146101b85780635ba8d2ad146102485780635e383d21146102835780636d4ce63c146102d25780639fba1f9a14610301578063d31f8b6b1461030b5761009c565b806316eaa247146100a15780631f1bd692146100cf578063227367d51461015f5780633bccbbc9146101765780633fa4f2451461018d575b600080fd5b6100cd600480360360208110156100b757600080fd5b8101908080359060200190929190505050610471565b005b3480156100db57600080fd5b506100e461047b565b6040518080602001828103825283818151815260200191508051906020019080838360005b83811015610124578082015181840152602081019050610109565b50505050905090810190601f1680156101515780820380516001836020036101000a031916815260200191505b509250505060405180910390f35b34801561016b57600080fd5b50610174610519565b005b34801561018257600080fd5b5061018b610523565b005b34801561019957600080fd5b506101a2610532565b6040518082815260200191505060405180910390f35b3480156101c457600080fd5b506101cd610538565b6040518080602001828103825283818151815260200191508051906020019080838360005b8381101561020d5780820151818401526020810190506101f2565b50505050905090810190601f16801561023a5780820380516001836020036101000a031916815260200191505b509250505060405180910390f35b34801561025457600080fd5b506102816004803603602081101561026b57600080fd5b8101908080359060200190929190505050610575565b005b34801561028f57600080fd5b506102bc600480360360208110156102a657600080fd5b810190808035906020019092919050505061057f565b6040518082815260200191505060405180910390f35b3480156102de57600080fd5b506102e76105a2565b604051808215151515815260200191505060405180910390f35b6103096105ab565b005b34801561031757600080fd5b5061046f6004803603606081101561032e57600080fd5b81019080803590602001909291908035906020019064010000000081111561035557600080fd5b82018360208201111561036757600080fd5b8035906020019184600183028401116401000000008311171561038957600080fd5b91908080601f016020809104026020016040519081016040528093929190818152602001838380828437600081840152601f19601f820116905080830192505050505050509192919290803590602001906401000000008111156103ec57600080fd5b8201836020820111156103fe57600080fd5b8035906020019184602083028401116401000000008311171561042057600080fd5b919080806020026020016040519081016040528093929190818152602001838360200280828437600081840152601f19601f8201169050808301925050505050505091929192905050506105b5565b005b8060008190555050565b60018054600181600116156101000203166002900480601f0160208091040260200160405190810160405280929190818152602001828054600181600116156101000203166002900480156105115780601f106104e657610100808354040283529160200191610511565b820191906000526020600020905b8154815290600101906020018083116104f457829003601f168201915b505050505081565b600a600081905550565b6000151561053057600080fd5b565b60005481565b60606040805190810160405280600281526020017f5631000000000000000000000000000000000000000000000000000000000000815250905090565b8060008190555050565b60028181548110151561058e57fe5b906000526020600020016000915090505481565b60006001905090565b6064600081905550565b8260008190555081600190805190602001906105d29291906105ef565b5080600290805190602001906105e992919061066f565b50505050565b828054600181600116156101000203166002900490600052602060002090601f016020900481019282601f1061063057805160ff191683800117855561065e565b8280016001018555821561065e579182015b8281111561065d578251825591602001919060010190610642565b5b50905061066b91906106bc565b5090565b8280548282559060005260206000209081019282156106ab579160200282015b828111156106aa57825182559160200191906001019061068f565b5b5090506106b891906106bc565b5090565b6106de91905b808211156106da5760008160009055506001016106c2565b5090565b9056fea165627a7a72305820441774647e84a637e83608c16f1de3877387cd4d3634d111f551984c1def604d0029",
  "compiler": {
    "name": "solc",
    "version": "0.5.3+commit.10d17f24.Emscripten.clang",
    "optimizer": {
      "enabled": false,
      "runs": 200
    },
    "evmVersion": "constantinople"
  }
}