{
  "fileName": "GetFunctionMocks.sol",
  "contractName": "GetFunctionGrandchild",
  "source": "pragma solidity ^0.5.0;\n\ncontract GetFunctionBase {\n  uint256 x;\n  \n  function initialize(uint256 _x) public {\n    x = _x;\n  }\n\n  function initialize(string memory _x) public {\n    x = bytes(_x).length;\n  }\n\n  function initialize(uint256 _x, uint256 _y) public {\n    x = _x + _y;\n  }\n\n  function another(uint256 _x) public {\n    x = _x;\n  }\n}\n\ncontract GetFunctionChild is GetFunctionBase {\n  function initialize(bytes memory _x) public {\n    x = _x.length;\n  }\n}\n\ncontract GetFunctionOtherChild is GetFunctionBase {\n  function initialize(bytes32 _x) public {\n    x = uint256(_x);\n  }\n}\n\ncontract GetFunctionGrandchild is GetFunctionChild, GetFunctionOtherChild { }\n\ncontract GetFunctionOtherGrandchild is GetFunctionOtherChild, GetFunctionChild { }",
  "sourcePath": "contracts/mocks/GetFunctionMocks.sol",
  "abi": [
    {
      "constant": false,
      "inputs": [
        {
          "name": "_x",
          "type": "bytes"
        }
      ],
      "name": "initialize",
      "outputs": [],
      "payable": false,
      "stateMutability": "nonpayable",
      "type": "function"
    },
    {
      "constant": false,
      "inputs": [
        {
          "name": "_x",
          "type": "uint256"
        }
      ],
      "name": "another",
      "outputs": [],
      "payable": false,
      "stateMutability": "nonpayable",
      "type": "function"
    },
    {
      "constant": false,
      "inputs": [
        {
          "name": "_x",
          "type": "bytes32"
        }
      ],
      "name": "initialize",
      "outputs": [],
      "payable": false,
      "stateMutability": "nonpayable",
      "type": "function"
    },
    {
      "constant": false,
      "inputs": [
        {
          "name": "_x",
          "type": "uint256"
        },
        {
          "name": "_y",
          "type": "uint256"
        }
      ],
      "name": "initialize",
      "outputs": [],
      "payable": false,
      "stateMutability": "nonpayable",
      "type": "function"
    },
    {
      "constant": false,
      "inputs": [
        {
          "name": "_x",
          "type": "string"
        }
      ],
      "name": "initialize",
      "outputs": [],
      "payable": false,
      "stateMutability": "nonpayable",
      "type": "function"
    },
    {
      "constant": false,
      "inputs": [
        {
          "name": "_x",
          "type": "uint256"
        }
      ],
      "name": "initialize",
      "outputs": [],
      "payable": false,
      "stateMutability": "nonpayable",
      "type": "function"
    }
  ],
  "bytecode": "0x608060405234801561001057600080fd5b5061030f806100206000396000f3fe608060405234801561001057600080fd5b50600436106100625760003560e01c8063439fab9114610067578063499af201146101225780639498bd7114610150578063e4a301161461017e578063f62d1888146101b6578063fe4b84df14610271575b600080fd5b6101206004803603602081101561007d57600080fd5b810190808035906020019064010000000081111561009a57600080fd5b8201836020820111156100ac57600080fd5b803590602001918460018302840111640100000000831117156100ce57600080fd5b91908080601f016020809104026020016040519081016040528093929190818152602001838380828437600081840152601f19601f82011690508083019250505050505050919291929050505061029f565b005b61014e6004803603602081101561013857600080fd5b81019080803590602001909291905050506102aa565b005b61017c6004803603602081101561016657600080fd5b81019080803590602001909291905050506102b4565b005b6101b46004803603604081101561019457600080fd5b8101908080359060200190929190803590602001909291905050506102c1565b005b61026f600480360360208110156101cc57600080fd5b81019080803590602001906401000000008111156101e957600080fd5b8201836020820111156101fb57600080fd5b8035906020019184600183028401116401000000008311171561021d57600080fd5b91908080601f016020809104026020016040519081016040528093929190818152602001838380828437600081840152601f19601f8201169050808301925050505050505091929192905050506102ce565b005b61029d6004803603602081101561028757600080fd5b81019080803590602001909291905050506102d9565b005b805160008190555050565b8060008190555050565b8060001c60008190555050565b8082016000819055505050565b805160008190555050565b806000819055505056fea165627a7a72305820494981e7de2411b99b8157b4715bcde680044daaf256e968bdffc06b6702987a0029",
  "compiler": {
    "name": "solc",
    "version": "0.5.3+commit.10d17f24.Emscripten.clang",
    "optimizer": {
      "enabled": false,
      "runs": 200
    },
    "evmVersion": "constantinople"
  }
}