{
  "fileName": "RegressionImplementation.sol",
  "contractName": "Implementation1",
  "source": "pragma solidity ^0.5.0;\n\nimport \"../Initializable.sol\";\n\ncontract Implementation1 is Initializable {\n  uint value;\n\n  function initialize() initializer public {\n  }\n\n  function setValue(uint _number) public {\n    value = _number;\n  }\n}\n\ncontract Implementation2 is Initializable {\n  uint value;\n\n  function initialize() initializer public {\n  }\n\n  function setValue(uint _number) public {\n    value = _number;\n  }\n\n  function getValue() public view returns (uint) {\n    return value;\n  }\n}\n\ncontract Implementation3 is Initializable {\n  uint value;\n\n  function initialize() initializer public {\n  }\n\n  function setValue(uint _number) public {\n    value = _number;\n  }\n\n  function getValue(uint _number) public view returns (uint) {\n    return value + _number;\n  }\n}\n\ncontract Implementation4 is Initializable {\n  uint value;\n\n  function initialize() initializer public {\n  }\n\n  function setValue(uint _number) public {\n    value = _number;\n  }\n\n  function getValue() public view returns (uint) {\n    return value;\n  }\n\n  function() external {\n    value = 1;\n  }\n}\n",
  "sourcePath": "contracts/mocks/RegressionImplementation.sol",
  "abi": [
    {
      "constant": false,
      "inputs": [
        {
          "name": "_number",
          "type": "uint256"
        }
      ],
      "name": "setValue",
      "outputs": [],
      "payable": false,
      "stateMutability": "nonpayable",
      "type": "function"
    },
    {
      "constant": false,
      "inputs": [],
      "name": "initialize",
      "outputs": [],
      "payable": false,
      "stateMutability": "nonpayable",
      "type": "function"
    }
  ],
  "bytecode": "0x608060405234801561001057600080fd5b506101ef806100206000396000f3fe608060405234801561001057600080fd5b50600436106100365760003560e01c8063552410771461003b5780638129fc1c14610069575b600080fd5b6100676004803603602081101561005157600080fd5b8101908080359060200190929190505050610073565b005b61007161007d565b005b8060338190555050565b600060019054906101000a900460ff168061009c575061009b61017e565b5b806100b357506000809054906101000a900460ff16155b151561010a576040517f08c379a000000000000000000000000000000000000000000000000000000000815260040180806020018281038252602e815260200180610196602e913960400191505060405180910390fd5b60008060019054906101000a900460ff16159050801561015a576001600060016101000a81548160ff02191690831515021790555060016000806101000a81548160ff0219169083151502179055505b801561017b5760008060016101000a81548160ff0219169083151502179055505b50565b6000803090506000813b905060008114925050509056fe436f6e747261637420696e7374616e63652068617320616c7265616479206265656e20696e697469616c697a6564a165627a7a72305820ecff767ca997620af7815cb1f4581177c246b82062e8e4edfda9f1ea57c03ab90029",
  "compiler": {
    "name": "solc",
    "version": "0.5.3+commit.10d17f24.Emscripten.clang",
    "optimizer": {
      "enabled": false,
      "runs": 200
    },
    "evmVersion": "constantinople"
  }
}