{
  "fileName": "InitializableMock.sol",
  "contractName": "InitializableMock",
  "source": "pragma solidity ^0.5.0;\n\nimport \"../Initializable.sol\";\n\n/**\n * @title InitializableMock\n * @dev This contract is a mock to test initializable functionality\n */\ncontract InitializableMock is Initializable {\n\n  bool public initializerRan;\n  uint256 public x;\n\n  function initialize() public initializer {\n    initializerRan = true;\n  }\n\n  function initializeNested() public initializer {\n    initialize();\n  }\n\n  function initializeWithX(uint256 _x) public payable initializer {\n    x = _x;\n  }\n\n  function nonInitializable(uint256 _x) public payable {\n    x = _x;\n  }\n\n  function fail() public pure {\n    require(false, \"InitializableMock forced failure\");\n  }\n\n  function secret() private pure returns (string memory) {\n    return 'Im secret';\n  }\n\n}\n",
  "sourcePath": "contracts/mocks/InitializableMock.sol",
  "abi": [
    {
      "constant": false,
      "inputs": [
        {
          "name": "_x",
          "type": "uint256"
        }
      ],
      "name": "initializeWithX",
      "outputs": [],
      "payable": true,
      "stateMutability": "payable",
      "type": "function"
    },
    {
      "constant": true,
      "inputs": [],
      "name": "x",
      "outputs": [
        {
          "name": "",
          "type": "uint256"
        }
      ],
      "payable": false,
      "stateMutability": "view",
      "type": "function"
    },
    {
      "constant": false,
      "inputs": [],
      "name": "initialize",
      "outputs": [],
      "payable": false,
      "stateMutability": "nonpayable",
      "type": "function"
    },
    {
      "constant": true,
      "inputs": [],
      "name": "fail",
      "outputs": [],
      "payable": false,
      "stateMutability": "pure",
      "type": "function"
    },
    {
      "constant": true,
      "inputs": [],
      "name": "initializerRan",
      "outputs": [
        {
          "name": "",
          "type": "bool"
        }
      ],
      "payable": false,
      "stateMutability": "view",
      "type": "function"
    },
    {
      "constant": false,
      "inputs": [],
      "name": "initializeNested",
      "outputs": [],
      "payable": false,
      "stateMutability": "nonpayable",
      "type": "function"
    },
    {
      "constant": false,
      "inputs": [
        {
          "name": "_x",
          "type": "uint256"
        }
      ],
      "name": "nonInitializable",
      "outputs": [],
      "payable": true,
      "stateMutability": "payable",
      "type": "function"
    }
  ],
  "bytecode": "0x608060405234801561001057600080fd5b506105a9806100206000396000f3fe60806040526004361061006f5760003560e01c8063a9cc47181161004e578063a9cc4718146100e4578063c3b8ef2a146100fb578063cb3a528d1461012a578063e955c9ec146101415761006f565b806218eaa8146100745780630c55699c146100a25780638129fc1c146100cd575b600080fd5b6100a06004803603602081101561008a57600080fd5b810190808035906020019092919050505061016f565b005b3480156100ae57600080fd5b506100b7610278565b6040518082815260200191505060405180910390f35b3480156100d957600080fd5b506100e261027e565b005b3480156100f057600080fd5b506100f961039a565b005b34801561010757600080fd5b50610110610412565b604051808215151515815260200191505060405180910390f35b34801561013657600080fd5b5061013f610425565b005b61016d6004803603602081101561015757600080fd5b810190808035906020019092919050505061052e565b005b600060019054906101000a900460ff168061018e575061018d610538565b5b806101a557506000809054906101000a900460ff16155b15156101fc576040517f08c379a000000000000000000000000000000000000000000000000000000000815260040180806020018281038252602e815260200180610550602e913960400191505060405180910390fd5b60008060019054906101000a900460ff16159050801561024c576001600060016101000a81548160ff02191690831515021790555060016000806101000a81548160ff0219169083151502179055505b8160348190555080156102745760008060016101000a81548160ff0219169083151502179055505b5050565b60345481565b600060019054906101000a900460ff168061029d575061029c610538565b5b806102b457506000809054906101000a900460ff16155b151561030b576040517f08c379a000000000000000000000000000000000000000000000000000000000815260040180806020018281038252602e815260200180610550602e913960400191505060405180910390fd5b60008060019054906101000a900460ff16159050801561035b576001600060016101000a81548160ff02191690831515021790555060016000806101000a81548160ff0219169083151502179055505b6001603360006101000a81548160ff02191690831515021790555080156103975760008060016101000a81548160ff0219169083151502179055505b50565b60001515610410576040517f08c379a00000000000000000000000000000000000000000000000000000000081526004018080602001828103825260208152602001807f496e697469616c697a61626c654d6f636b20666f72636564206661696c75726581525060200191505060405180910390fd5b565b603360009054906101000a900460ff1681565b600060019054906101000a900460ff16806104445750610443610538565b5b8061045b57506000809054906101000a900460ff16155b15156104b2576040517f08c379a000000000000000000000000000000000000000000000000000000000815260040180806020018281038252602e815260200180610550602e913960400191505060405180910390fd5b60008060019054906101000a900460ff161590508015610502576001600060016101000a81548160ff02191690831515021790555060016000806101000a81548160ff0219169083151502179055505b61050a61027e565b801561052b5760008060016101000a81548160ff0219169083151502179055505b50565b8060348190555050565b6000803090506000813b905060008114925050509056fe436f6e747261637420696e7374616e63652068617320616c7265616479206265656e20696e697469616c697a6564a165627a7a72305820287277f186cfd0868034fed958b0abf0f28439fe9d0569dbc87cecb63ecb49cf0029",
  "compiler": {
    "name": "solc",
    "version": "0.5.3+commit.10d17f24.Emscripten.clang",
    "optimizer": {
      "enabled": false,
      "runs": 200
    },
    "evmVersion": "constantinople"
  }
}