{
  "fileName": "MultipleInheritanceInitializableMocks.sol",
  "contractName": "SampleGramps",
  "source": "pragma solidity ^0.5.0;\n\nimport '../Initializable.sol';\n\n// Sample contracts showing upgradeability with multiple inheritance.\n// Child contract inherits from Father and Mother contracts, and Father extends from Gramps.\n// \n//         Human\n//       /       \\\n//      |       Gramps\n//      |         |\n//    Mother    Father\n//      |         |\n//      -- Child --\n\n/**\n * Sample base intializable contract that is a human\n */\ncontract SampleHuman is Initializable {\n  bool public isHuman;\n\n  function initialize() initializer public {\n    isHuman = true;\n  }\n}\n\n/**\n * Sample base intializable contract that defines a field mother\n */\ncontract SampleMother is Initializable, SampleHuman {\n  uint256 public mother;\n\n  function initialize(uint256 value) initializer public {\n    SampleHuman.initialize();\n    mother = value;\n  }\n}\n\n/**\n * Sample base intializable contract that defines a field gramps\n */\ncontract SampleGramps is Initializable, SampleHuman {\n  uint256 public gramps;\n\n  function initialize(uint256 value) initializer public {\n    SampleHuman.initialize();\n    gramps = value;\n  }\n}\n\n/**\n * Sample base intializable contract that defines a field father and extends from gramps\n */\ncontract SampleFather is Initializable, SampleGramps {\n  uint256 public father;\n\n  function initialize(uint256 _gramps, uint256 _father) initializer public {\n    SampleGramps.initialize(_gramps);\n    father = _father;\n  }\n}\n\n/**\n * Child extends from mother, father (gramps)\n */\ncontract SampleChild is Initializable, SampleMother, SampleFather {\n  uint256 public child;\n\n  function initialize(uint256 _mother, uint256 _gramps, uint256 _father, uint256 _child) initializer public {\n    SampleMother.initialize(_mother);\n    SampleFather.initialize(_gramps, _father);\n    child = _child;\n  }\n}\n",
  "sourcePath": "contracts/mocks/MultipleInheritanceInitializableMocks.sol",
  "abi": [
    {
      "constant": true,
      "inputs": [],
      "name": "isHuman",
      "outputs": [
        {
          "name": "",
          "type": "bool"
        }
      ],
      "payable": false,
      "stateMutability": "view",
      "type": "function"
    },
    {
      "constant": false,
      "inputs": [],
      "name": "initialize",
      "outputs": [],
      "payable": false,
      "stateMutability": "nonpayable",
      "type": "function"
    },
    {
      "constant": true,
      "inputs": [],
      "name": "gramps",
      "outputs": [
        {
          "name": "",
          "type": "uint256"
        }
      ],
      "payable": false,
      "stateMutability": "view",
      "type": "function"
    },
    {
      "constant": false,
      "inputs": [
        {
          "name": "value",
          "type": "uint256"
        }
      ],
      "name": "initialize",
      "outputs": [],
      "payable": false,
      "stateMutability": "nonpayable",
      "type": "function"
    }
  ],
  "bytecode": "0x608060405234801561001057600080fd5b50610380806100206000396000f3fe608060405234801561001057600080fd5b506004361061004c5760003560e01c80634a6c9db6146100515780638129fc1c14610073578063fa39851f1461007d578063fe4b84df1461009b575b600080fd5b6100596100c9565b604051808215151515815260200191505060405180910390f35b61007b6100dc565b005b6100856101f8565b6040518082815260200191505060405180910390f35b6100c7600480360360208110156100b157600080fd5b81019080803590602001909291905050506101fe565b005b603360009054906101000a900460ff1681565b600060019054906101000a900460ff16806100fb57506100fa61030f565b5b8061011257506000809054906101000a900460ff16155b1515610169576040517f08c379a000000000000000000000000000000000000000000000000000000000815260040180806020018281038252602e815260200180610327602e913960400191505060405180910390fd5b60008060019054906101000a900460ff1615905080156101b9576001600060016101000a81548160ff02191690831515021790555060016000806101000a81548160ff0219169083151502179055505b6001603360006101000a81548160ff02191690831515021790555080156101f55760008060016101000a81548160ff0219169083151502179055505b50565b60345481565b600060019054906101000a900460ff168061021d575061021c61030f565b5b8061023457506000809054906101000a900460ff16155b151561028b576040517f08c379a000000000000000000000000000000000000000000000000000000000815260040180806020018281038252602e815260200180610327602e913960400191505060405180910390fd5b60008060019054906101000a900460ff1615905080156102db576001600060016101000a81548160ff02191690831515021790555060016000806101000a81548160ff0219169083151502179055505b6102e36100dc565b81603481905550801561030b5760008060016101000a81548160ff0219169083151502179055505b5050565b6000803090506000813b905060008114925050509056fe436f6e747261637420696e7374616e63652068617320616c7265616479206265656e20696e697469616c697a6564a165627a7a7230582073a0e6fa49d51fa890eae5c05a54cbff718ebd101fed54263cc226c2b6f39f3d0029",
  "compiler": {
    "name": "solc",
    "version": "0.5.3+commit.10d17f24.Emscripten.clang",
    "optimizer": {
      "enabled": false,
      "runs": 200
    },
    "evmVersion": "constantinople"
  }
}