{
  "fileName": "StorageMocks.sol",
  "contractName": "StorageMockMixed",
  "source": "pragma solidity ^0.5.0;\n\n// Added just for having a circular reference\nimport \"./StorageMocks3.sol\";\n\ncontract SimpleStorageMock {\n  uint256 public my_public_uint256;\n  string internal my_internal_string;\n  uint8 private my_private_uint8;\n  int8 private my_private_uint16;\n  bool private my_private_bool;\n  uint private my_private_uint;\n  address private my_private_address;\n}\n\ncontract StorageMockWithBytes {\n  bytes internal my_bytes;\n  bytes8 internal my_bytes8;\n  bytes32 internal my_bytes32;\n}\n\ncontract StorageMockWithConstants {\n  uint256 public constant my_public_uint256 = 256;\n  string internal constant my_internal_string = \"foo\";\n  uint8 private constant my_private_uint8 = 8;\n}\n\ncontract StorageMockWithArrays {\n  uint256[] public my_public_uint256_dynarray;\n  string[] internal my_internal_string_dynarray;\n  address[] private my_private_address_dynarray;\n  int8[10] public my_public_int8_staticarray;\n  bool[20] internal my_internal_bool_staticarray;\n  uint[30] private my_private_uint_staticarray;\n}\n\ncontract StorageMockWithMappings {\n  mapping(uint256 => string) public my_mapping;\n  mapping(uint256 => mapping(string => address)) internal my_nested_mapping;\n  mapping(uint256 => bool[]) private my_mapping_with_arrays;\n}\n\ncontract StorageMockWithFunctions {\n  function(uint) internal my_fun;\n  function(string memory, string memory)[] internal my_fun_dynarray;\n  function(uint) returns (address)[10] internal my_fun_staticarray;\n  mapping(uint256 => function(bool)) internal my_fun_mapping;\n}\n\ncontract StorageMockWithContracts {\n  SimpleStorageMock public my_contract;\n  SimpleStorageMock[] private my_contract_dynarray;\n  SimpleStorageMock[10] internal my_contract_staticarray;\n  mapping(uint256 => SimpleStorageMock) private my_contract_mapping;\n  mapping(uint256 => SimpleStorageMock[]) private my_contract_dynarray_mapping;\n  mapping(uint256 => SimpleStorageMock[10]) private my_contract_staticarray_mapping;\n}\n\ncontract StorageMockWithStructs {\n  struct MyStruct {\n    uint256 struct_uint256;\n    string struct_string;\n    address struct_address;\n  }  \n\n  MyStruct internal my_struct;\n  MyStruct[] private my_struct_dynarray;\n  MyStruct[10] internal my_struct_staticarray;\n  mapping(uint256 => MyStruct) private my_struct_mapping;\n}\n\ncontract StorageMockWithEnums {\n  enum MyEnum { State1, State2 }\n \n  MyEnum public my_enum;\n  MyEnum[] internal my_enum_dynarray;\n  MyEnum[10] internal my_enum_staticarray;\n  mapping(uint256 => MyEnum) private my_enum_mapping;\n}\n\ncontract StorageMockWithComplexStructs {\n  struct MyStruct {\n    uint256[] uint256_dynarray;\n    mapping(string => StorageMockWithEnums.MyEnum) mapping_enums;\n    StorageMockWithStructs.MyStruct other_struct;\n  }\n\n  MyStruct internal my_struct;\n  StorageMockWithStructs.MyStruct internal my_other_struct;\n}\n\ncontract StorageMockWithRecursiveStructs {\n  struct MyStruct {\n    OtherStruct[] other_structs;\n  }\n\n  struct OtherStruct {\n    MyStruct my_struct;\n  }\n\n  MyStruct internal my_struct;\n}\n\ncontract StorageMockMixed is StorageMockWithStructs, StorageMockWithEnums, SimpleStorageMock {\n}\n",
  "sourcePath": "contracts/mocks/StorageMocks.sol",
  "abi": [
    {
      "constant": true,
      "inputs": [],
      "name": "my_public_uint256",
      "outputs": [
        {
          "name": "",
          "type": "uint256"
        }
      ],
      "payable": false,
      "stateMutability": "view",
      "type": "function"
    },
    {
      "constant": true,
      "inputs": [],
      "name": "my_enum",
      "outputs": [
        {
          "name": "",
          "type": "uint8"
        }
      ],
      "payable": false,
      "stateMutability": "view",
      "type": "function"
    }
  ],
  "bytecode": "0x608060405234801561001057600080fd5b5060c18061001f6000396000f3fe6080604052348015600f57600080fd5b506004361060325760003560e01c806326b2009f146037578063a43ced45146053575b600080fd5b603d607c565b6040518082815260200191505060405180910390f35b60596082565b60405180826001811115606857fe5b60ff16815260200191505060405180910390f35b60275481565b602360009054906101000a900460ff168156fea165627a7a72305820648111bbd7a43ce3a97006cfbb2d09f77f1460d632140d12dea34da640a1612e0029",
  "compiler": {
    "name": "solc",
    "version": "0.5.3+commit.10d17f24.Emscripten.clang",
    "optimizer": {
      "enabled": false,
      "runs": 200
    },
    "evmVersion": "constantinople"
  }
}