{
  "fileName": "Invalid.sol",
  "contractName": "WithAncestorConstructor",
  "source": "pragma solidity ^0.5.0;\n\nimport \"mock-dependency/contracts/Greeter.sol\";\nimport \"mock-dependency/contracts/DependencyInvalid.sol\";\n\ncontract WithConstructor {\n  uint256 public value;\n\n  constructor() public {\n    value = 42;\n  }\n\n  function say() public pure returns (string memory) {\n    return \"WithConstructor\";\n  }\n}\n\ncontract WithParentConstructor is WithConstructor {\n}\n\ncontract WithAncestorConstructor is WithParentConstructor {\n}\n\ncontract WithDependencyParentConstructor is DependencyWithConstructor {\n}\n\ncontract WithEmptyConstructor {\n  constructor() internal { }\n}\n\ncontract WithModifierInConstructor {\n  modifier modifies { _; }\n  constructor() modifies internal { }\n}\n\ncontract WithAncestorEmptyConstructor is WithEmptyConstructor {\n}\n\ncontract WithFailingConstructor {\n  constructor() public {\n    assert(false);\n  }\n}\n\ncontract WithSelfDestruct {\n  uint256 public value;\n\n  constructor() public {\n    if (true)\n      selfdestruct(msg.sender);\n  }\n\n  function say() public pure returns (string memory) {\n    return \"WithSelfDestruct\";\n  }\n}\n\ncontract WithParentWithSelfDestruct is WithSelfDestruct {\n  function say() public pure returns (string memory) {\n    return \"WithParentWithSelfDestruct\";\n  }\n}\n\ncontract WithDelegateCall {\n  constructor(address _e) public {\n    // bytes4(keccak256(\"kill()\")) == 0x41c0e1b5\n    bytes memory data = \"\\x41\\xc0\\xe1\\xb5\";\n    (bool success,) = _e.delegatecall(data);\n    require(success);\n  }\n  \n  function say() public pure returns (string memory) {\n    return \"WithDelegateCall\";\n  }\n}\n\ncontract WithParentWithDelegateCall is WithDelegateCall {\n  constructor(address _e) public WithDelegateCall(_e) {\n  }\n\n  function say() public pure returns (string memory) {\n    return \"WithParentWithDelegateCall\";\n  }\n}\n\ncontract WithVanillaBaseContract is Greeter { }",
  "sourcePath": "contracts/mocks/Invalid.sol",
  "abi": [
    {
      "constant": true,
      "inputs": [],
      "name": "value",
      "outputs": [
        {
          "name": "",
          "type": "uint256"
        }
      ],
      "payable": false,
      "stateMutability": "view",
      "type": "function"
    },
    {
      "constant": true,
      "inputs": [],
      "name": "say",
      "outputs": [
        {
          "name": "",
          "type": "string"
        }
      ],
      "payable": false,
      "stateMutability": "pure",
      "type": "function"
    }
  ],
  "bytecode": "0x6080604052602a60008190555061014b8061001b6000396000f3fe608060405234801561001057600080fd5b50600436106100365760003560e01c80633fa4f2451461003b578063954ab4b214610059575b600080fd5b6100436100dc565b6040518082815260200191505060405180910390f35b6100616100e2565b6040518080602001828103825283818151815260200191508051906020019080838360005b838110156100a1578082015181840152602081019050610086565b50505050905090810190601f1680156100ce5780820380516001836020036101000a031916815260200191505b509250505060405180910390f35b60005481565b60606040805190810160405280600f81526020017f57697468436f6e7374727563746f72000000000000000000000000000000000081525090509056fea165627a7a7230582003b63856223f7a18652fbfb8c286cdd98407662add9e85bcadd8137e57ed19420029",
  "compiler": {
    "name": "solc",
    "version": "0.5.3+commit.10d17f24.Emscripten.clang",
    "optimizer": {
      "enabled": false,
      "runs": 200
    },
    "evmVersion": "constantinople"
  }
}