{
  "fileName": "WithLibrary.sol",
  "contractName": "WithLibraryMock",
  "source": "pragma solidity ^0.5.0;\n\nlibrary MyLibrary {\n  function answer() external pure returns(uint256) {\n    return 42;\n  }\n}\n\ncontract WithLibraryMock {\n  function reply() external pure returns(uint256) {\n    return MyLibrary.answer();\n  }\n}",
  "sourcePath": "contracts/mocks/WithLibrary.sol",
  "abi": [
    {
      "constant": true,
      "inputs": [],
      "name": "reply",
      "outputs": [
        {
          "name": "",
          "type": "uint256"
        }
      ],
      "payable": false,
      "stateMutability": "pure",
      "type": "function"
    }
  ],
  "bytecode": "0x608060405234801561001057600080fd5b5060f88061001f6000396000f3fe6080604052348015600f57600080fd5b506004361060285760003560e01c80636e39397514602d575b600080fd5b60336049565b6040518082815260200191505060405180910390f35b600073__MyLibrary_____________________________6385bb7d696040518163ffffffff1660e01b815260040160206040518083038186803b158015608e57600080fd5b505af415801560a1573d6000803e3d6000fd5b505050506040513d602081101560b657600080fd5b810190808051906020019092919050505090509056fea165627a7a723058203d1adc54bd8b758e124d612ca46b015498a6cd1a415a24130877ef34d7048e0c0029",
  "deployedBytecode": "0x6080604052348015600f57600080fd5b506004361060285760003560e01c80636e39397514602d575b600080fd5b60336049565b6040518082815260200191505060405180910390f35b600073__MyLibrary_____________________________6385bb7d696040518163ffffffff1660e01b815260040160206040518083038186803b158015608e57600080fd5b505af415801560a1573d6000803e3d6000fd5b505050506040513d602081101560b657600080fd5b810190808051906020019092919050505090509056fea165627a7a723058203d1adc54bd8b758e124d612ca46b015498a6cd1a415a24130877ef34d7048e0c0029",
  "compiler": {
    "name": "solc",
    "version": "0.5.3+commit.10d17f24.Emscripten.clang",
    "optimizer": {
      "enabled": false,
      "runs": 200
    },
    "evmVersion": "constantinople"
  }
}