{
  "fileName": "WithInitialValues.sol",
  "contractName": "WithInitialValuesInFieldsDeclarations",
  "source": "pragma solidity ^0.5.0;\n\ncontract WithoutInitialValuesInFieldsDeclarations {\n  uint constant myConst = 115994;\n\n  function doSomething() public pure returns (string memory) {\n    return 'do';\n  }\n}\n\ncontract WithInitialValuesInFieldsDeclarations {\n  string public allaps = 'allaps';\n\n  function doSomething() public pure returns (string memory) {\n    return 'do';\n  }\n}\n\ncontract WithParentWithInitialValuesInFieldsDeclarations is WithInitialValuesInFieldsDeclarations {\n  string public myVar;\n\n  function doSomething() public pure returns (string memory) {\n    return 'do';\n  }\n}\n\n",
  "sourcePath": "contracts/mocks/WithInitialValues.sol",
  "abi": [
    {
      "constant": true,
      "inputs": [],
      "name": "doSomething",
      "outputs": [
        {
          "name": "",
          "type": "string"
        }
      ],
      "payable": false,
      "stateMutability": "pure",
      "type": "function"
    },
    {
      "constant": true,
      "inputs": [],
      "name": "allaps",
      "outputs": [
        {
          "name": "",
          "type": "string"
        }
      ],
      "payable": false,
      "stateMutability": "view",
      "type": "function"
    }
  ],
  "bytecode": "0x60806040526040805190810160405280600681526020017f616c6c61707300000000000000000000000000000000000000000000000000008152506000908051906020019061004f929190610062565b5034801561005c57600080fd5b50610107565b828054600181600116156101000203166002900490600052602060002090601f016020900481019282601f106100a357805160ff19168380011785556100d1565b828001600101855582156100d1579182015b828111156100d05782518255916020019190600101906100b5565b5b5090506100de91906100e2565b5090565b61010491905b808211156101005760008160009055506001016100e8565b5090565b90565b610248806101166000396000f3fe608060405234801561001057600080fd5b50600436106100365760003560e01c8063826926791461003b578063bc4b0e64146100be575b600080fd5b610043610141565b6040518080602001828103825283818151815260200191508051906020019080838360005b83811015610083578082015181840152602081019050610068565b50505050905090810190601f1680156100b05780820380516001836020036101000a031916815260200191505b509250505060405180910390f35b6100c661017e565b6040518080602001828103825283818151815260200191508051906020019080838360005b838110156101065780820151818401526020810190506100eb565b50505050905090810190601f1680156101335780820380516001836020036101000a031916815260200191505b509250505060405180910390f35b60606040805190810160405280600281526020017f646f000000000000000000000000000000000000000000000000000000000000815250905090565b60008054600181600116156101000203166002900480601f0160208091040260200160405190810160405280929190818152602001828054600181600116156101000203166002900480156102145780601f106101e957610100808354040283529160200191610214565b820191906000526020600020905b8154815290600101906020018083116101f757829003601f168201915b50505050508156fea165627a7a723058206b6e8c2607b72dac9bd9ff1151a288000b58f4f605273261ddac69c01b7ce9180029",
  "compiler": {
    "name": "solc",
    "version": "0.5.3+commit.10d17f24.Emscripten.clang",
    "optimizer": {
      "enabled": false,
      "runs": 200
    },
    "evmVersion": "constantinople"
  }
}