{
  "fileName": "WithInitialize.sol",
  "contractName": "WithBaseUninitialized",
  "source": "pragma solidity ^0.5.0;\n\nimport \"../Initializable.sol\";\n\ncontract WithInitialize {\n  uint public value;\n\n  function initialize() public {\n    value = 42;\n  }\n}\n\ncontract AnotherWithInitialize is Initializable {\n  uint public anotherValue;\n\n  function init() initializer public {\n    anotherValue = 42;\n  }\n}\n\ncontract WithoutInitialize {\n  function say() public pure returns (string memory) {\n    return \"WithoutInitialize\";\n  }\n}\n\ncontract WithBaseUninitialized is WithInitialize, AnotherWithInitialize {\n  uint public someValue;\n\n  function initialize() public {\n    someValue = 42;\n  }\n}\n\ncontract WithBaseInitialized is WithInitialize, AnotherWithInitialize {\n  uint public someValue;\n\n  function initialize() public {\n    WithInitialize.initialize();\n    AnotherWithInitialize.init();\n    someValue = 42;\n  }\n}\n\ncontract WithSimpleBaseUninitialized is WithoutInitialize {\n  uint public someValue;\n\n  function initialize() public {\n    someValue = 42;\n  }\n}\n\ncontract ShouldHaveInitialize is WithInitialize, AnotherWithInitialize {\n  uint public someValue;\n}\n\ncontract DoesNotNeedAnInitialize is WithInitialize, WithoutInitialize {\n  uint public someValue;\n}\n\ncontract ExtendsFromShouldHaveInitialize is ShouldHaveInitialize {\n  uint public someOtherValue;\n}\n",
  "sourcePath": "contracts/mocks/WithInitialize.sol",
  "abi": [
    {
      "constant": true,
      "inputs": [],
      "name": "value",
      "outputs": [
        {
          "name": "",
          "type": "uint256"
        }
      ],
      "payable": false,
      "stateMutability": "view",
      "type": "function"
    },
    {
      "constant": true,
      "inputs": [],
      "name": "someValue",
      "outputs": [
        {
          "name": "",
          "type": "uint256"
        }
      ],
      "payable": false,
      "stateMutability": "view",
      "type": "function"
    },
    {
      "constant": true,
      "inputs": [],
      "name": "anotherValue",
      "outputs": [
        {
          "name": "",
          "type": "uint256"
        }
      ],
      "payable": false,
      "stateMutability": "view",
      "type": "function"
    },
    {
      "constant": false,
      "inputs": [],
      "name": "initialize",
      "outputs": [],
      "payable": false,
      "stateMutability": "nonpayable",
      "type": "function"
    },
    {
      "constant": false,
      "inputs": [],
      "name": "init",
      "outputs": [],
      "payable": false,
      "stateMutability": "nonpayable",
      "type": "function"
    }
  ],
  "bytecode": "0x608060405234801561001057600080fd5b5061025f806100206000396000f3fe608060405234801561001057600080fd5b50600436106100575760003560e01c80633fa4f2451461005c5780634a627e611461007a57806368620bd0146100985780638129fc1c146100b6578063e1c7392a146100c0575b600080fd5b6100646100ca565b6040518082815260200191505060405180910390f35b6100826100d0565b6040518082815260200191505060405180910390f35b6100a06100d6565b6040518082815260200191505060405180910390f35b6100be6100dc565b005b6100c86100e6565b005b60005481565b60355481565b60345481565b602a603581905550565b6001809054906101000a900460ff168061010457506101036101ee565b5b8061011c5750600160009054906101000a900460ff16155b1515610173576040517f08c379a000000000000000000000000000000000000000000000000000000000815260040180806020018281038252602e815260200180610206602e913960400191505060405180910390fd5b60006001809054906101000a900460ff1615905080156101c25760018060016101000a81548160ff02191690831515021790555060018060006101000a81548160ff0219169083151502179055505b602a60348190555080156101eb5760006001806101000a81548160ff0219169083151502179055505b50565b6000803090506000813b905060008114925050509056fe436f6e747261637420696e7374616e63652068617320616c7265616479206265656e20696e697469616c697a6564a165627a7a72305820e28d9ef2c94e8417d57773e80ee3033b339eb2852c006b00cd89804a2a143e600029",
  "compiler": {
    "name": "solc",
    "version": "0.5.3+commit.10d17f24.Emscripten.clang",
    "optimizer": {
      "enabled": false,
      "runs": 200
    },
    "evmVersion": "constantinople"
  }
}