{
  "fileName": "WithStructInConstructor.sol",
  "contractName": "WithStructInConstructor",
  "source": "pragma experimental ABIEncoderV2;\n\ncontract WithStructInConstructor {\n\n  struct Data {\n    string foo;\n    string bar;\n    uint256 buz;\n  }\n\n  Data public localData;\n  address public sender;\n\n  constructor(Data memory _data) public {\n    localData.foo = _data.foo;\n    localData.bar = _data.bar;\n    localData.buz = _data.buz;\n    sender = msg.sender;\n  }\n\n  function foo() public view returns (string memory) {\n    return localData.foo;\n  }\n\n  function bar() public view returns (string memory) {\n    return localData.bar;\n  }\n\n  function buz() public view returns (uint256) {\n    return localData.buz;\n  }\n}\n",
  "sourcePath": "contracts/mocks/WithStructInConstructor.sol",
  "abi": [
    {
      "constant": true,
      "inputs": [],
      "name": "localData",
      "outputs": [
        {
          "name": "foo",
          "type": "string"
        },
        {
          "name": "bar",
          "type": "string"
        },
        {
          "name": "buz",
          "type": "uint256"
        }
      ],
      "payable": false,
      "stateMutability": "view",
      "type": "function"
    },
    {
      "constant": true,
      "inputs": [],
      "name": "sender",
      "outputs": [
        {
          "name": "",
          "type": "address"
        }
      ],
      "payable": false,
      "stateMutability": "view",
      "type": "function"
    },
    {
      "constant": true,
      "inputs": [],
      "name": "buz",
      "outputs": [
        {
          "name": "",
          "type": "uint256"
        }
      ],
      "payable": false,
      "stateMutability": "view",
      "type": "function"
    },
    {
      "constant": true,
      "inputs": [],
      "name": "foo",
      "outputs": [
        {
          "name": "",
          "type": "string"
        }
      ],
      "payable": false,
      "stateMutability": "view",
      "type": "function"
    },
    {
      "constant": true,
      "inputs": [],
      "name": "bar",
      "outputs": [
        {
          "name": "",
          "type": "string"
        }
      ],
      "payable": false,
      "stateMutability": "view",
      "type": "function"
    },
    {
      "inputs": [
        {
          "components": [
            {
              "name": "foo",
              "type": "string"
            },
            {
              "name": "bar",
              "type": "string"
            },
            {
              "name": "buz",
              "type": "uint256"
            }
          ],
          "name": "_data",
          "type": "tuple"
        }
      ],
      "payable": false,
      "stateMutability": "nonpayable",
      "type": "constructor"
    }
  ],
  "bytecode": "0x60806040523480156200001157600080fd5b5060405160608062000924833981018060405262000033919081019062000286565b806000015160008001908051906020019062000051929190620000c8565b5080602001516000600101908051906020019062000071929190620000c8565b50806040015160006002018190555033600360006101000a81548173ffffffffffffffffffffffffffffffffffffffff021916908373ffffffffffffffffffffffffffffffffffffffff1602179055505062000366565b828054600181600116156101000203166002900490600052602060002090601f016020900481019282601f106200010b57805160ff19168380011785556200013c565b828001600101855582156200013c579182015b828111156200013b5782518255916020019190600101906200011e565b5b5090506200014b91906200014f565b5090565b6200017491905b808211156200017057600081600090555060010162000156565b5090565b90565b600082601f83011215156200018b57600080fd5b8151620001a26200019c82620002f9565b620002cb565b91508082526020830160208301858383011115620001bf57600080fd5b620001cc83828462000330565b50505092915050565b600060608284031215620001e857600080fd5b620001f46060620002cb565b9050600082015167ffffffffffffffff8111156200021157600080fd5b6200021f8482850162000177565b600083015250602082015167ffffffffffffffff8111156200024057600080fd5b6200024e8482850162000177565b6020830152506040620002648482850162000270565b60408301525092915050565b60006200027e825162000326565b905092915050565b6000602082840312156200029957600080fd5b600082015167ffffffffffffffff811115620002b457600080fd5b620002c284828501620001d5565b91505092915050565b6000604051905081810181811067ffffffffffffffff82111715620002ef57600080fd5b8060405250919050565b600067ffffffffffffffff8211156200031157600080fd5b601f19601f8301169050602081019050919050565b6000819050919050565b60005b838110156200035057808201518184015260208101905062000333565b8381111562000360576000848401525b50505050565b6105ae80620003766000396000f3fe608060405234801561001057600080fd5b50600436106100575760003560e01c80634efe82681461005c57806367e404ce1461007c578063bbe8f0841461009a578063c2985578146100b8578063febb0f7e146100d6575b600080fd5b6100646100f4565b6040516100739392919061047e565b60405180910390f35b61008461023c565b6040516100919190610441565b60405180910390f35b6100a2610262565b6040516100af91906104c3565b60405180910390f35b6100c061026e565b6040516100cd919061045c565b60405180910390f35b6100de610312565b6040516100eb919061045c565b60405180910390f35b6000806000018054600181600116156101000203166002900480601f01602080910402602001604051908101604052809291908181526020018280546001816001161561010002031660029004801561018e5780601f106101635761010080835404028352916020019161018e565b820191906000526020600020905b81548152906001019060200180831161017157829003601f168201915b505050505090806001018054600181600116156101000203166002900480601f01602080910402602001604051908101604052809291908181526020018280546001816001161561010002031660029004801561022c5780601f106102015761010080835404028352916020019161022c565b820191906000526020600020905b81548152906001019060200180831161020f57829003601f168201915b5050505050908060020154905083565b600360009054906101000a900473ffffffffffffffffffffffffffffffffffffffff1681565b60008060020154905090565b6060600080018054600181600116156101000203166002900480601f0160208091040260200160405190810160405280929190818152602001828054600181600116156101000203166002900480156103085780601f106102dd57610100808354040283529160200191610308565b820191906000526020600020905b8154815290600101906020018083116102eb57829003601f168201915b5050505050905090565b606060006001018054600181600116156101000203166002900480601f0160208091040260200160405190810160405280929190818152602001828054600181600116156101000203166002900480156103ad5780601f10610382576101008083540402835291602001916103ad565b820191906000526020600020905b81548152906001019060200180831161039057829003601f168201915b5050505050905090565b6103c0816104f4565b82525050565b60006103d1826104e9565b8084526103e5816020860160208601610530565b6103ee81610563565b602085010191505092915050565b6000610407826104de565b80845261041b816020860160208601610530565b61042481610563565b602085010191505092915050565b61043b81610526565b82525050565b600060208201905061045660008301846103b7565b92915050565b6000602082019050818103600083015261047681846103c6565b905092915050565b6000606082019050818103600083015261049881866103fc565b905081810360208301526104ac81856103fc565b90506104bb6040830184610432565b949350505050565b60006020820190506104d86000830184610432565b92915050565b600081519050919050565b600081519050919050565b60006104ff82610506565b9050919050565b600073ffffffffffffffffffffffffffffffffffffffff82169050919050565b6000819050919050565b60005b8381101561054e578082015181840152602081019050610533565b8381111561055d576000848401525b50505050565b6000601f19601f830116905091905056fea265627a7a723058204aabcac9fce51ca9b3b69e12097067014e2cbb007b37db1403c71af078c5a7f86c6578706572696d656e74616cf50037",
  "compiler": {
    "name": "solc",
    "version": "0.5.3+commit.10d17f24.Emscripten.clang",
    "optimizer": {
      "enabled": false,
      "runs": 200
    },
    "evmVersion": "constantinople"
  }
}