{
  "fileName": "WithInitialValues.sol",
  "contractName": "WithoutInitialValuesInFieldsDeclarations",
  "source": "pragma solidity ^0.5.0;\n\ncontract WithoutInitialValuesInFieldsDeclarations {\n  uint constant myConst = 115994;\n\n  function doSomething() public pure returns (string memory) {\n    return 'do';\n  }\n}\n\ncontract WithInitialValuesInFieldsDeclarations {\n  string public allaps = 'allaps';\n\n  function doSomething() public pure returns (string memory) {\n    return 'do';\n  }\n}\n\ncontract WithParentWithInitialValuesInFieldsDeclarations is WithInitialValuesInFieldsDeclarations {\n  string public myVar;\n\n  function doSomething() public pure returns (string memory) {\n    return 'do';\n  }\n}\n\n",
  "sourcePath": "contracts/mocks/WithInitialValues.sol",
  "abi": [
    {
      "constant": true,
      "inputs": [],
      "name": "doSomething",
      "outputs": [
        {
          "name": "",
          "type": "string"
        }
      ],
      "payable": false,
      "stateMutability": "pure",
      "type": "function"
    }
  ],
  "bytecode": "0x608060405234801561001057600080fd5b50610114806100206000396000f3fe6080604052348015600f57600080fd5b506004361060285760003560e01c80638269267914602d575b600080fd5b603360ab565b6040518080602001828103825283818151815260200191508051906020019080838360005b8381101560715780820151818401526020810190506058565b50505050905090810190601f168015609d5780820380516001836020036101000a031916815260200191505b509250505060405180910390f35b60606040805190810160405280600281526020017f646f00000000000000000000000000000000000000000000000000000000000081525090509056fea165627a7a72305820645ba28dc72f3174af537f94f72aae1776c5de6b137c6a9edd6bd2e660d8e03e0029",
  "compiler": {
    "name": "solc",
    "version": "0.5.3+commit.10d17f24.Emscripten.clang",
    "optimizer": {
      "enabled": false,
      "runs": 200
    },
    "evmVersion": "constantinople"
  }
}